{
  "contractName": "BnBooking",
  "abi": [
    {
      "inputs": [
        {
          "internalType": "uint256",
          "name": "_feeRate",
          "type": "uint256"
        },
        {
          "internalType": "address payable",
          "name": "_feeReceiver",
          "type": "address"
        }
      ],
      "stateMutability": "nonpayable",
      "type": "constructor"
    },
    {
      "anonymous": false,
      "inputs": [
        {
          "indexed": true,
          "internalType": "uint256",
          "name": "roomId",
          "type": "uint256"
        },
        {
          "indexed": true,
          "internalType": "address",
          "name": "booker",
          "type": "address"
        },
        {
          "indexed": true,
          "internalType": "address",
          "name": "owner",
          "type": "address"
        },
        {
          "indexed": false,
          "internalType": "uint256",
          "name": "price",
          "type": "uint256"
        },
        {
          "indexed": false,
          "internalType": "uint256",
          "name": "day",
          "type": "uint256"
        },
        {
          "indexed": false,
          "internalType": "uint256",
          "name": "month",
          "type": "uint256"
        },
        {
          "indexed": false,
          "internalType": "uint256",
          "name": "year",
          "type": "uint256"
        }
      ],
      "name": "BookIntentCreated",
      "type": "event"
    },
    {
      "anonymous": false,
      "inputs": [
        {
          "indexed": true,
          "internalType": "uint256",
          "name": "roomId",
          "type": "uint256"
        },
        {
          "indexed": true,
          "internalType": "address",
          "name": "booker",
          "type": "address"
        },
        {
          "indexed": true,
          "internalType": "address",
          "name": "owner",
          "type": "address"
        },
        {
          "indexed": false,
          "internalType": "uint256",
          "name": "price",
          "type": "uint256"
        },
        {
          "indexed": false,
          "internalType": "uint256",
          "name": "day",
          "type": "uint256"
        },
        {
          "indexed": false,
          "internalType": "uint256",
          "name": "month",
          "type": "uint256"
        },
        {
          "indexed": false,
          "internalType": "uint256",
          "name": "year",
          "type": "uint256"
        }
      ],
      "name": "BookIntentRejected",
      "type": "event"
    },
    {
      "anonymous": false,
      "inputs": [
        {
          "indexed": true,
          "internalType": "address",
          "name": "previousOwner",
          "type": "address"
        },
        {
          "indexed": true,
          "internalType": "address",
          "name": "newOwner",
          "type": "address"
        }
      ],
      "name": "OwnershipTransferred",
      "type": "event"
    },
    {
      "anonymous": false,
      "inputs": [
        {
          "indexed": true,
          "internalType": "address",
          "name": "paymentReceiver",
          "type": "address"
        },
        {
          "indexed": false,
          "internalType": "uint256",
          "name": "price",
          "type": "uint256"
        }
      ],
      "name": "PaymentSent",
      "type": "event"
    },
    {
      "anonymous": false,
      "inputs": [
        {
          "indexed": true,
          "internalType": "address",
          "name": "owner",
          "type": "address"
        },
        {
          "indexed": true,
          "internalType": "uint256",
          "name": "roomId",
          "type": "uint256"
        },
        {
          "indexed": false,
          "internalType": "uint256",
          "name": "newPrice",
          "type": "uint256"
        }
      ],
      "name": "PriceChanged",
      "type": "event"
    },
    {
      "anonymous": false,
      "inputs": [
        {
          "indexed": true,
          "internalType": "uint256",
          "name": "roomId",
          "type": "uint256"
        },
        {
          "indexed": true,
          "internalType": "address",
          "name": "booker",
          "type": "address"
        },
        {
          "indexed": true,
          "internalType": "address",
          "name": "owner",
          "type": "address"
        },
        {
          "indexed": false,
          "internalType": "uint256",
          "name": "price",
          "type": "uint256"
        },
        {
          "indexed": false,
          "internalType": "uint256",
          "name": "day",
          "type": "uint256"
        },
        {
          "indexed": false,
          "internalType": "uint256",
          "name": "month",
          "type": "uint256"
        },
        {
          "indexed": false,
          "internalType": "uint256",
          "name": "year",
          "type": "uint256"
        }
      ],
      "name": "RoomBooked",
      "type": "event"
    },
    {
      "anonymous": false,
      "inputs": [
        {
          "indexed": true,
          "internalType": "address",
          "name": "owner",
          "type": "address"
        },
        {
          "indexed": true,
          "internalType": "uint256",
          "name": "roomId",
          "type": "uint256"
        },
        {
          "indexed": false,
          "internalType": "uint256",
          "name": "price",
          "type": "uint256"
        }
      ],
      "name": "RoomCreated",
      "type": "event"
    },
    {
      "anonymous": false,
      "inputs": [
        {
          "indexed": true,
          "internalType": "address",
          "name": "owner",
          "type": "address"
        },
        {
          "indexed": true,
          "internalType": "uint256",
          "name": "roomId",
          "type": "uint256"
        }
      ],
      "name": "RoomRemoved",
      "type": "event"
    },
    {
      "inputs": [],
      "name": "FEE_RATE_PRECISION",
      "outputs": [
        {
          "internalType": "uint256",
          "name": "",
          "type": "uint256"
        }
      ],
      "stateMutability": "view",
      "type": "function"
    },
    {
      "inputs": [],
      "name": "MAX_INTENTS",
      "outputs": [
        {
          "internalType": "uint256",
          "name": "",
          "type": "uint256"
        }
      ],
      "stateMutability": "view",
      "type": "function"
    },
    {
      "inputs": [],
      "name": "feeRate",
      "outputs": [
        {
          "internalType": "uint256",
          "name": "",
          "type": "uint256"
        }
      ],
      "stateMutability": "view",
      "type": "function"
    },
    {
      "inputs": [],
      "name": "feeReceiver",
      "outputs": [
        {
          "internalType": "address payable",
          "name": "",
          "type": "address"
        }
      ],
      "stateMutability": "view",
      "type": "function"
    },
    {
      "inputs": [],
      "name": "nextRoomId",
      "outputs": [
        {
          "internalType": "uint256",
          "name": "",
          "type": "uint256"
        }
      ],
      "stateMutability": "view",
      "type": "function"
    },
    {
      "inputs": [],
      "name": "owner",
      "outputs": [
        {
          "internalType": "address",
          "name": "",
          "type": "address"
        }
      ],
      "stateMutability": "view",
      "type": "function"
    },
    {
      "inputs": [],
      "name": "renounceOwnership",
      "outputs": [],
      "stateMutability": "nonpayable",
      "type": "function"
    },
    {
      "inputs": [
        {
          "internalType": "uint256",
          "name": "",
          "type": "uint256"
        }
      ],
      "name": "rooms",
      "outputs": [
        {
          "internalType": "uint256",
          "name": "roomId",
          "type": "uint256"
        },
        {
          "internalType": "address",
          "name": "owner",
          "type": "address"
        },
        {
          "internalType": "uint256",
          "name": "price",
          "type": "uint256"
        }
      ],
      "stateMutability": "view",
      "type": "function"
    },
    {
      "inputs": [
        {
          "internalType": "address",
          "name": "newOwner",
          "type": "address"
        }
      ],
      "name": "transferOwnership",
      "outputs": [],
      "stateMutability": "nonpayable",
      "type": "function"
    },
    {
      "inputs": [
        {
          "internalType": "uint256",
          "name": "price",
          "type": "uint256"
        }
      ],
      "name": "createRoom",
      "outputs": [],
      "stateMutability": "nonpayable",
      "type": "function"
    },
    {
      "inputs": [
        {
          "internalType": "uint256",
          "name": "newFeeRate",
          "type": "uint256"
        }
      ],
      "name": "setFeeRate",
      "outputs": [],
      "stateMutability": "nonpayable",
      "type": "function"
    },
    {
      "inputs": [
        {
          "internalType": "address payable",
          "name": "newFeeReceiver",
          "type": "address"
        }
      ],
      "name": "setFeeReceiver",
      "outputs": [],
      "stateMutability": "nonpayable",
      "type": "function"
    },
    {
      "inputs": [
        {
          "internalType": "uint256",
          "name": "roomId",
          "type": "uint256"
        },
        {
          "internalType": "uint256",
          "name": "day",
          "type": "uint256"
        },
        {
          "internalType": "uint256",
          "name": "month",
          "type": "uint256"
        },
        {
          "internalType": "uint256",
          "name": "year",
          "type": "uint256"
        }
      ],
      "name": "booked",
      "outputs": [
        {
          "internalType": "bool",
          "name": "",
          "type": "bool"
        }
      ],
      "stateMutability": "view",
      "type": "function"
    },
    {
      "inputs": [
        {
          "internalType": "uint256",
          "name": "roomId",
          "type": "uint256"
        },
        {
          "internalType": "uint256",
          "name": "day",
          "type": "uint256"
        },
        {
          "internalType": "uint256",
          "name": "month",
          "type": "uint256"
        },
        {
          "internalType": "uint256",
          "name": "year",
          "type": "uint256"
        }
      ],
      "name": "intentBook",
      "outputs": [],
      "stateMutability": "payable",
      "type": "function"
    },
    {
      "inputs": [
        {
          "internalType": "uint256",
          "name": "roomId",
          "type": "uint256"
        },
        {
          "internalType": "uint256",
          "name": "initialDay",
          "type": "uint256"
        },
        {
          "internalType": "uint256",
          "name": "initialMonth",
          "type": "uint256"
        },
        {
          "internalType": "uint256",
          "name": "initialYear",
          "type": "uint256"
        },
        {
          "internalType": "uint256",
          "name": "lastDay",
          "type": "uint256"
        },
        {
          "internalType": "uint256",
          "name": "lastMonth",
          "type": "uint256"
        },
        {
          "internalType": "uint256",
          "name": "lastYear",
          "type": "uint256"
        }
      ],
      "name": "intentBookingBatch",
      "outputs": [],
      "stateMutability": "payable",
      "type": "function"
    },
    {
      "inputs": [
        {
          "internalType": "uint256",
          "name": "roomId",
          "type": "uint256"
        },
        {
          "internalType": "address payable",
          "name": "booker",
          "type": "address"
        },
        {
          "internalType": "uint256",
          "name": "day",
          "type": "uint256"
        },
        {
          "internalType": "uint256",
          "name": "month",
          "type": "uint256"
        },
        {
          "internalType": "uint256",
          "name": "year",
          "type": "uint256"
        }
      ],
      "name": "reject",
      "outputs": [],
      "stateMutability": "nonpayable",
      "type": "function"
    },
    {
      "inputs": [
        {
          "internalType": "uint256",
          "name": "roomId",
          "type": "uint256"
        },
        {
          "internalType": "address payable",
          "name": "booker",
          "type": "address"
        },
        {
          "internalType": "uint256",
          "name": "initialDay",
          "type": "uint256"
        },
        {
          "internalType": "uint256",
          "name": "initialMonth",
          "type": "uint256"
        },
        {
          "internalType": "uint256",
          "name": "initialYear",
          "type": "uint256"
        },
        {
          "internalType": "uint256",
          "name": "lastDay",
          "type": "uint256"
        },
        {
          "internalType": "uint256",
          "name": "lastMonth",
          "type": "uint256"
        },
        {
          "internalType": "uint256",
          "name": "lastYear",
          "type": "uint256"
        }
      ],
      "name": "rejectBatch",
      "outputs": [],
      "stateMutability": "payable",
      "type": "function"
    },
    {
      "inputs": [
        {
          "internalType": "uint256",
          "name": "roomId",
          "type": "uint256"
        },
        {
          "internalType": "address",
          "name": "booker",
          "type": "address"
        },
        {
          "internalType": "uint256",
          "name": "day",
          "type": "uint256"
        },
        {
          "internalType": "uint256",
          "name": "month",
          "type": "uint256"
        },
        {
          "internalType": "uint256",
          "name": "year",
          "type": "uint256"
        }
      ],
      "name": "accept",
      "outputs": [],
      "stateMutability": "nonpayable",
      "type": "function"
    },
    {
      "inputs": [
        {
          "internalType": "uint256",
          "name": "roomId",
          "type": "uint256"
        },
        {
          "internalType": "address",
          "name": "booker",
          "type": "address"
        },
        {
          "internalType": "uint256",
          "name": "initialDay",
          "type": "uint256"
        },
        {
          "internalType": "uint256",
          "name": "initialMonth",
          "type": "uint256"
        },
        {
          "internalType": "uint256",
          "name": "initialYear",
          "type": "uint256"
        },
        {
          "internalType": "uint256",
          "name": "lastDay",
          "type": "uint256"
        },
        {
          "internalType": "uint256",
          "name": "lastMonth",
          "type": "uint256"
        },
        {
          "internalType": "uint256",
          "name": "lastYear",
          "type": "uint256"
        }
      ],
      "name": "acceptBatch",
      "outputs": [],
      "stateMutability": "payable",
      "type": "function"
    },
    {
      "inputs": [
        {
          "internalType": "uint256",
          "name": "roomId",
          "type": "uint256"
        }
      ],
      "name": "removeRoom",
      "outputs": [],
      "stateMutability": "nonpayable",
      "type": "function"
    },
    {
      "inputs": [
        {
          "internalType": "uint256",
          "name": "roomId",
          "type": "uint256"
        },
        {
          "internalType": "uint256",
          "name": "newPrice",
          "type": "uint256"
        }
      ],
      "name": "changePrice",
      "outputs": [],
      "stateMutability": "nonpayable",
      "type": "function"
    }
  ],
  "bytecode": "0x608060405260006005553480156200001657600080fd5b50604051620036f6380380620036f6833981810160405260408110156200003c57600080fd5b8101908080519060200190929190805190602001909291905050506000620000696200015760201b60201c565b9050806000806101000a81548173ffffffffffffffffffffffffffffffffffffffff021916908373ffffffffffffffffffffffffffffffffffffffff1602179055508073ffffffffffffffffffffffffffffffffffffffff16600073ffffffffffffffffffffffffffffffffffffffff167f8be0079c531659141344cd1fd0a4f28419497f9722a3daafe3b4186f6b6457e060405160405180910390a3508160068190555080600760006101000a81548173ffffffffffffffffffffffffffffffffffffffff021916908373ffffffffffffffffffffffffffffffffffffffff16021790555050506200015f565b600033905090565b613587806200016f6000396000f3fe60806040526004361061012a5760003560e01c8063952d4af5116100ab578063b3f006741161006f578063b3f00674146105ea578063ba0038fb1461062b578063bbba8257146106a4578063efdcd974146106df578063f2fde38b14610730578063f4ca4d1d146107815761012a565b8063952d4af51461045a578063978bbdb914610485578063ab4989f4146104b0578063acd112d51461051a578063b3de019c146105a55761012a565b8063541116a1116100f2578063541116a1146102b257806362351932146102fe578063715018a6146103775780638da5cb5b1461038e5780638e558aad146103cf5761012a565b806307a52cab1461012f5780630f466f961461015a5780631bae0ac8146101c957806345596e2e1461023c578063461d60be14610277575b600080fd5b34801561013b57600080fd5b506101446107ac565b6040518082815260200191505060405180910390f35b34801561016657600080fd5b506101b16004803603608081101561017d57600080fd5b81019080803590602001909291908035906020019092919080359060200190929190803590602001909291905050506107b2565b60405180821515815260200191505060405180910390f35b3480156101d557600080fd5b50610202600480360360208110156101ec57600080fd5b81019080803590602001909291905050506108c0565b604051808481526020018373ffffffffffffffffffffffffffffffffffffffff168152602001828152602001935050505060405180910390f35b34801561024857600080fd5b506102756004803603602081101561025f57600080fd5b8101908080359060200190929190505050610917565b005b34801561028357600080fd5b506102b06004803603602081101561029a57600080fd5b81019080803590602001909291905050506109e9565b005b6102fc600480360360808110156102c857600080fd5b8101908080359060200190929190803590602001909291908035906020019092919080359060200190929190505050610d01565b005b34801561030a57600080fd5b50610375600480360360a081101561032157600080fd5b8101908080359060200190929190803573ffffffffffffffffffffffffffffffffffffffff169060200190929190803590602001909291908035906020019092919080359060200190929190505050610e0a565b005b34801561038357600080fd5b5061038c610e1e565b005b34801561039a57600080fd5b506103a3610fa4565b604051808273ffffffffffffffffffffffffffffffffffffffff16815260200191505060405180910390f35b61045860048036036101008110156103e657600080fd5b8101908080359060200190929190803573ffffffffffffffffffffffffffffffffffffffff169060200190929190803590602001909291908035906020019092919080359060200190929190803590602001909291908035906020019092919080359060200190929190505050610fcd565b005b34801561046657600080fd5b5061046f611026565b6040518082815260200191505060405180910390f35b34801561049157600080fd5b5061049a61102b565b6040518082815260200191505060405180910390f35b610518600480360360e08110156104c657600080fd5b8101908080359060200190929190803590602001909291908035906020019092919080359060200190929190803590602001909291908035906020019092919080359060200190929190505050611031565b005b6105a3600480360361010081101561053157600080fd5b8101908080359060200190929190803573ffffffffffffffffffffffffffffffffffffffff169060200190929190803590602001909291908035906020019092919080359060200190929190803590602001909291908035906020019092919080359060200190929190505050611193565b005b3480156105b157600080fd5b506105e8600480360360408110156105c857600080fd5b8101908080359060200190929190803590602001909291905050506111ec565b005b3480156105f657600080fd5b506105ff611487565b604051808273ffffffffffffffffffffffffffffffffffffffff16815260200191505060405180910390f35b34801561063757600080fd5b506106a2600480360360a081101561064e57600080fd5b8101908080359060200190929190803573ffffffffffffffffffffffffffffffffffffffff1690602001909291908035906020019092919080359060200190929190803590602001909291905050506114ad565b005b3480156106b057600080fd5b506106dd600480360360208110156106c757600080fd5b81019080803590602001909291905050506115c4565b005b3480156106eb57600080fd5b5061072e6004803603602081101561070257600080fd5b81019080803573ffffffffffffffffffffffffffffffffffffffff16906020019092919050505061175b565b005b34801561073c57600080fd5b5061077f6004803603602081101561075357600080fd5b81019080803573ffffffffffffffffffffffffffffffffffffffff169060200190929190505050611867565b005b34801561078d57600080fd5b50610796611a72565b6040518082815260200191505060405180910390f35b60055481565b60008383836107c2838383611a7e565b610834576040517f08c379a000000000000000000000000000000000000000000000000000000000815260040180806020018281038252600c8152602001807f496e76616c69642064617465000000000000000000000000000000000000000081525060200191505060405180910390fd5b600073ffffffffffffffffffffffffffffffffffffffff16600160008a8152602001908152602001600020600061086c8a8a8a611bb2565b815260200190815260200160002060009054906101000a900473ffffffffffffffffffffffffffffffffffffffff1673ffffffffffffffffffffffffffffffffffffffff1614159350505050949350505050565b600481815481106108cd57fe5b90600052602060002090600302016000915090508060000154908060010160009054906101000a900473ffffffffffffffffffffffffffffffffffffffff16908060020154905083565b61091f611bf4565b73ffffffffffffffffffffffffffffffffffffffff1660008054906101000a900473ffffffffffffffffffffffffffffffffffffffff1673ffffffffffffffffffffffffffffffffffffffff16146109df576040517f08c379a00000000000000000000000000000000000000000000000000000000081526004018080602001828103825260208152602001807f4f776e61626c653a2063616c6c6572206973206e6f7420746865206f776e657281525060200191505060405180910390fd5b8060068190555050565b806005548110610a61576040517f08c379a00000000000000000000000000000000000000000000000000000000081526004018080602001828103825260198152602001807f526f6f6d20686173206e6f74206265656e20637265617465640000000000000081525060200191505060405180910390fd5b600073ffffffffffffffffffffffffffffffffffffffff1660048281548110610a8657fe5b906000526020600020906003020160010160009054906101000a900473ffffffffffffffffffffffffffffffffffffffff1673ffffffffffffffffffffffffffffffffffffffff161415610b42576040517f08c379a00000000000000000000000000000000000000000000000000000000081526004018080602001828103825260158152602001807f526f6f6d20686173206265656e2072656d6f766564000000000000000000000081525060200191505060405180910390fd5b600060048381548110610b5157fe5b906000526020600020906003020190503373ffffffffffffffffffffffffffffffffffffffff168160010160009054906101000a900473ffffffffffffffffffffffffffffffffffffffff1673ffffffffffffffffffffffffffffffffffffffff161480610bf157503373ffffffffffffffffffffffffffffffffffffffff16610bd9610fa4565b73ffffffffffffffffffffffffffffffffffffffff16145b610c63576040517f08c379a00000000000000000000000000000000000000000000000000000000081526004018080602001828103825260098152602001807f4e6f74206f776e6572000000000000000000000000000000000000000000000081525060200191505060405180910390fd5b60048381548110610c7057fe5b90600052602060002090600302016000808201600090556001820160006101000a81549073ffffffffffffffffffffffffffffffffffffffff021916905560028201600090555050823373ffffffffffffffffffffffffffffffffffffffff167fb0c1b3c32cac986f4cc1171cd7f48a359f031abfa919e63ef8e808313f08b18e60405160405180910390a3505050565b610d0d84848484611bfc565b600060048581548110610d1c57fe5b906000526020600020906003020190508060020154341015610da6576040517f08c379a00000000000000000000000000000000000000000000000000000000081526004018080602001828103825260118152602001807f5072696365206e6f74207265616368656400000000000000000000000000000081525060200191505060405180910390fd5b3373ffffffffffffffffffffffffffffffffffffffff166108fc610dd78360020154346122d390919063ffffffff16565b9081150290604051600060405180830381858888f19350505050158015610e02573d6000803e3d6000fd5b505050505050565b610e17858585858561231d565b5050505050565b610e26611bf4565b73ffffffffffffffffffffffffffffffffffffffff1660008054906101000a900473ffffffffffffffffffffffffffffffffffffffff1673ffffffffffffffffffffffffffffffffffffffff1614610ee6576040517f08c379a00000000000000000000000000000000000000000000000000000000081526004018080602001828103825260208152602001807f4f776e61626c653a2063616c6c6572206973206e6f7420746865206f776e657281525060200191505060405180910390fd5b600073ffffffffffffffffffffffffffffffffffffffff1660008054906101000a900473ffffffffffffffffffffffffffffffffffffffff1673ffffffffffffffffffffffffffffffffffffffff167f8be0079c531659141344cd1fd0a4f28419497f9722a3daafe3b4186f6b6457e060405160405180910390a360008060006101000a81548173ffffffffffffffffffffffffffffffffffffffff021916908373ffffffffffffffffffffffffffffffffffffffff160217905550565b60008060009054906101000a900473ffffffffffffffffffffffffffffffffffffffff16905090565b6000869050600086905060008690505b610feb8383838989896127f0565b1561101957610ffd8b8b85858561231d565b611008838383612837565b809350819450829550505050610fdd565b5050505050505050505050565b600581565b60065481565b600086905060008690506000869050600060048b8154811061104f57fe5b9060005260206000209060030201905060005b6110708585858b8b8b6127f0565b156110b6576110818c868686611bfc565b61108c858585612837565b8095508196508297505050506110af82600201548261289b90919063ffffffff16565b9050611062565b8034101561112c576040517f08c379a00000000000000000000000000000000000000000000000000000000081526004018080602001828103825260118152602001807f5072696365206e6f74207265616368656400000000000000000000000000000081525060200191505060405180910390fd5b3373ffffffffffffffffffffffffffffffffffffffff166108fc61115983346122d390919063ffffffff16565b9081150290604051600060405180830381858888f19350505050158015611184573d6000803e3d6000fd5b50505050505050505050505050565b6000869050600086905060008690505b6111b18383838989896127f0565b156111df576111c38b8b858585612923565b6111ce838383612837565b8093508194508295505050506111a3565b5050505050505050505050565b816005548110611264576040517f08c379a00000000000000000000000000000000000000000000000000000000081526004018080602001828103825260198152602001807f526f6f6d20686173206e6f74206265656e20637265617465640000000000000081525060200191505060405180910390fd5b600073ffffffffffffffffffffffffffffffffffffffff166004828154811061128957fe5b906000526020600020906003020160010160009054906101000a900473ffffffffffffffffffffffffffffffffffffffff1673ffffffffffffffffffffffffffffffffffffffff161415611345576040517f08c379a00000000000000000000000000000000000000000000000000000000081526004018080602001828103825260158152602001807f526f6f6d20686173206265656e2072656d6f766564000000000000000000000081525060200191505060405180910390fd5b60006004848154811061135457fe5b906000526020600020906003020190503373ffffffffffffffffffffffffffffffffffffffff168160010160009054906101000a900473ffffffffffffffffffffffffffffffffffffffff1673ffffffffffffffffffffffffffffffffffffffff1614611429576040517f08c379a00000000000000000000000000000000000000000000000000000000081526004018080602001828103825260098152602001807f4e6f74206f776e6572000000000000000000000000000000000000000000000081525060200191505060405180910390fd5b828160020181905550833373ffffffffffffffffffffffffffffffffffffffff167f4d624906ce6fd4e4b8b649463516ff505029a1903a8cc34bd82b4ca0f9a479de856040518082815260200191505060405180910390a350505050565b600760009054906101000a900473ffffffffffffffffffffffffffffffffffffffff1681565b60006003600087815260200190815260200160002060006114cf868686611bb2565b8152602001908152602001600020905060008180549050905060005b818110156115ad578673ffffffffffffffffffffffffffffffffffffffff1683828154811061151657fe5b9060005260206000200160009054906101000a900473ffffffffffffffffffffffffffffffffffffffff1673ffffffffffffffffffffffffffffffffffffffff16146115a05761159f8884838154811061156c57fe5b9060005260206000200160009054906101000a900473ffffffffffffffffffffffffffffffffffffffff16888888612f0b565b5b80806001019150506114eb565b506115bb8787878787612923565b50505050505050565b6000811161163a576040517f08c379a00000000000000000000000000000000000000000000000000000000081526004018080602001828103825260128152602001807f50726963652063616e74206265207a65726f000000000000000000000000000081525060200191505060405180910390fd5b600060056000815480929190600101919050559050600460405180606001604052808381526020013373ffffffffffffffffffffffffffffffffffffffff1681526020018481525090806001815401808255809150506001900390600052602060002090600302016000909190919091506000820151816000015560208201518160010160006101000a81548173ffffffffffffffffffffffffffffffffffffffff021916908373ffffffffffffffffffffffffffffffffffffffff160217905550604082015181600201555050803373ffffffffffffffffffffffffffffffffffffffff167f0441c8f3d8bb6f2798e54498dec697384f8effb97b5fc9b9bc5776afffde6530846040518082815260200191505060405180910390a35050565b611763611bf4565b73ffffffffffffffffffffffffffffffffffffffff1660008054906101000a900473ffffffffffffffffffffffffffffffffffffffff1673ffffffffffffffffffffffffffffffffffffffff1614611823576040517f08c379a00000000000000000000000000000000000000000000000000000000081526004018080602001828103825260208152602001807f4f776e61626c653a2063616c6c6572206973206e6f7420746865206f776e657281525060200191505060405180910390fd5b80600760006101000a81548173ffffffffffffffffffffffffffffffffffffffff021916908373ffffffffffffffffffffffffffffffffffffffff16021790555050565b61186f611bf4565b73ffffffffffffffffffffffffffffffffffffffff1660008054906101000a900473ffffffffffffffffffffffffffffffffffffffff1673ffffffffffffffffffffffffffffffffffffffff161461192f576040517f08c379a00000000000000000000000000000000000000000000000000000000081526004018080602001828103825260208152602001807f4f776e61626c653a2063616c6c6572206973206e6f7420746865206f776e657281525060200191505060405180910390fd5b600073ffffffffffffffffffffffffffffffffffffffff168173ffffffffffffffffffffffffffffffffffffffff1614156119b5576040517f08c379a000000000000000000000000000000000000000000000000000000000815260040180806020018281038252602681526020018061350b6026913960400191505060405180910390fd5b8073ffffffffffffffffffffffffffffffffffffffff1660008054906101000a900473ffffffffffffffffffffffffffffffffffffffff1673ffffffffffffffffffffffffffffffffffffffff167f8be0079c531659141344cd1fd0a4f28419497f9722a3daafe3b4186f6b6457e060405160405180910390a3806000806101000a81548173ffffffffffffffffffffffffffffffffffffffff021916908373ffffffffffffffffffffffffffffffffffffffff16021790555050565b670de0b6b3a764000081565b60006001831080611a8f5750600c83115b15611a9d5760009050611bab565b6000808511905060008060048581611ab157fe5b06148015611ae05750600060648581611ac657fe5b06141580611adf575060006101908581611adc57fe5b06145b5b90506000601c87111580611afe5750818015611afd5750601d8711155b5b905060006001871480611b115750600387145b80611b1c5750600587145b80611b275750600687145b80611b325750600887145b80611b3d5750600a87145b80611b485750600c87145b9050600081158015611b5b575060028814155b90506000601e8a11158015611b6d5750815b80611b825750601f8a11158015611b815750825b5b80611b965750838015611b955750600289145b5b9050858015611ba25750805b96505050505050505b9392505050565b60008383836040516020018084815260200183815260200182815260200193505050506040516020818303038152906040528051906020012090509392505050565b600033905090565b828282611c0a838383611a7e565b611c7c576040517f08c379a000000000000000000000000000000000000000000000000000000000815260040180806020018281038252600c8152602001807f496e76616c69642064617465000000000000000000000000000000000000000081525060200191505060405180910390fd5b866005548110611cf4576040517f08c379a00000000000000000000000000000000000000000000000000000000081526004018080602001828103825260198152602001807f526f6f6d20686173206e6f74206265656e20637265617465640000000000000081525060200191505060405180910390fd5b600073ffffffffffffffffffffffffffffffffffffffff1660048281548110611d1957fe5b906000526020600020906003020160010160009054906101000a900473ffffffffffffffffffffffffffffffffffffffff1673ffffffffffffffffffffffffffffffffffffffff161415611dd5576040517f08c379a00000000000000000000000000000000000000000000000000000000081526004018080602001828103825260158152602001807f526f6f6d20686173206265656e2072656d6f766564000000000000000000000081525060200191505060405180910390fd5b600060048981548110611de457fe5b90600052602060002090600302019050611e00898989896107b2565b15611e73576040517f08c379a00000000000000000000000000000000000000000000000000000000081526004018080602001828103825260128152602001807f526f6f6d206e6f7420617661696c61626c65000000000000000000000000000081525060200191505060405180910390fd5b6000600260008b81526020019081526020016000206000611e958b8b8b611bb2565b815260200190815260200160002060003373ffffffffffffffffffffffffffffffffffffffff1673ffffffffffffffffffffffffffffffffffffffff1681526020019081526020016000206000015414611f57576040517f08c379a00000000000000000000000000000000000000000000000000000000081526004018080602001828103825260168152602001807f496e74656e7420616c726561647920637265617465640000000000000000000081525060200191505060405180910390fd5b3373ffffffffffffffffffffffffffffffffffffffff168160010160009054906101000a900473ffffffffffffffffffffffffffffffffffffffff1673ffffffffffffffffffffffffffffffffffffffff16141561201d576040517f08c379a00000000000000000000000000000000000000000000000000000000081526004018080602001828103825260198152602001807f43616e6e6f7420626f6f6b20796f7572206f776e20726f6f6d0000000000000081525060200191505060405180910390fd5b6005600360008b8152602001908152602001600020600061203f8b8b8b611bb2565b815260200190815260200160002080549050106120c4576040517f08c379a00000000000000000000000000000000000000000000000000000000081526004018080602001828103825260138152602001807f4d617820696e74656e747320726561636865640000000000000000000000000081525060200191505060405180910390fd5b600360008a815260200190815260200160002060006120e48a8a8a611bb2565b8152602001908152602001600020339080600181540180825580915050600190039060005260206000200160009091909190916101000a81548173ffffffffffffffffffffffffffffffffffffffff021916908373ffffffffffffffffffffffffffffffffffffffff1602179055506040518060400160405280826002015481526020016001600360008d8152602001908152602001600020600061218a8d8d8d611bb2565b81526020019081526020016000208054905003815250600260008b815260200190815260200160002060006121c08b8b8b611bb2565b815260200190815260200160002060003373ffffffffffffffffffffffffffffffffffffffff1673ffffffffffffffffffffffffffffffffffffffff16815260200190815260200160002060008201518160000155602082015181600101559050508060010160009054906101000a900473ffffffffffffffffffffffffffffffffffffffff1673ffffffffffffffffffffffffffffffffffffffff163373ffffffffffffffffffffffffffffffffffffffff168a7f9d58b08712bc1e874d7c3be499f112091776ce2e76f1983e106e62f3de116f7684600201548c8c8c6040518085815260200184815260200183815260200182815260200194505050505060405180910390a4505050505050505050565b600061231583836040518060400160405280601e81526020017f536166654d6174683a207375627472616374696f6e206f766572666c6f77000081525061300e565b905092915050565b82828261232b838383611a7e565b61239d576040517f08c379a000000000000000000000000000000000000000000000000000000000815260040180806020018281038252600c8152602001807f496e76616c69642064617465000000000000000000000000000000000000000081525060200191505060405180910390fd5b876005548110612415576040517f08c379a00000000000000000000000000000000000000000000000000000000081526004018080602001828103825260198152602001807f526f6f6d20686173206e6f74206265656e20637265617465640000000000000081525060200191505060405180910390fd5b600073ffffffffffffffffffffffffffffffffffffffff166004828154811061243a57fe5b906000526020600020906003020160010160009054906101000a900473ffffffffffffffffffffffffffffffffffffffff1673ffffffffffffffffffffffffffffffffffffffff1614156124f6576040517f08c379a00000000000000000000000000000000000000000000000000000000081526004018080602001828103825260158152602001807f526f6f6d20686173206265656e2072656d6f766564000000000000000000000081525060200191505060405180910390fd5b600060048a8154811061250557fe5b906000526020600020906003020190503373ffffffffffffffffffffffffffffffffffffffff168160010160009054906101000a900473ffffffffffffffffffffffffffffffffffffffff1673ffffffffffffffffffffffffffffffffffffffff16146125da576040517f08c379a00000000000000000000000000000000000000000000000000000000081526004018080602001828103825260098152602001807f4e6f74206f776e6572000000000000000000000000000000000000000000000081525060200191505060405180910390fd5b6000600260008c815260200190815260200160002060006125fc8b8b8b611bb2565b815260200190815260200160002060008b73ffffffffffffffffffffffffffffffffffffffff1673ffffffffffffffffffffffffffffffffffffffff16815260200190815260200160002090506000816000015414156126c4576040517f08c379a00000000000000000000000000000000000000000000000000000000081526004018080602001828103825260108152602001807f496e74656e74206e6f7420666f756e640000000000000000000000000000000081525060200191505060405180910390fd5b3373ffffffffffffffffffffffffffffffffffffffff168a73ffffffffffffffffffffffffffffffffffffffff168c7f63ea553483a92dc4cdae148a75656ef0ee49a22a2b969de4b7a85edda2ba5db084600001548d8d8d6040518085815260200184815260200183815260200182815260200194505050505060405180910390a46127548a82600001546130ce565b600260008c815260200190815260200160002060006127748b8b8b611bb2565b815260200190815260200160002060008b73ffffffffffffffffffffffffffffffffffffffff1673ffffffffffffffffffffffffffffffffffffffff168152602001908152602001600020600080820160009055600182016000905550506127e38b82600101548b8b8b613167565b5050505050505050505050565b60008185108061280a5750818514801561280957508286105b5b8061282b5750818514801561281e57508286145b801561282a5750838711155b5b90509695505050505050565b600080600061284a600187018686611a7e565b1561286057600186018585925092509250612892565b61286e600180870186611a7e565b1561288457600180860185925092509250612892565b600180600186019250925092505b93509350939050565b600080828401905083811015612919576040517f08c379a000000000000000000000000000000000000000000000000000000000815260040180806020018281038252601b8152602001807f536166654d6174683a206164646974696f6e206f766572666c6f77000000000081525060200191505060405180910390fd5b8091505092915050565b828282612931838383611a7e565b6129a3576040517f08c379a000000000000000000000000000000000000000000000000000000000815260040180806020018281038252600c8152602001807f496e76616c69642064617465000000000000000000000000000000000000000081525060200191505060405180910390fd5b876005548110612a1b576040517f08c379a00000000000000000000000000000000000000000000000000000000081526004018080602001828103825260198152602001807f526f6f6d20686173206e6f74206265656e20637265617465640000000000000081525060200191505060405180910390fd5b600073ffffffffffffffffffffffffffffffffffffffff1660048281548110612a4057fe5b906000526020600020906003020160010160009054906101000a900473ffffffffffffffffffffffffffffffffffffffff1673ffffffffffffffffffffffffffffffffffffffff161415612afc576040517f08c379a00000000000000000000000000000000000000000000000000000000081526004018080602001828103825260158152602001807f526f6f6d20686173206265656e2072656d6f766564000000000000000000000081525060200191505060405180910390fd5b600060048a81548110612b0b57fe5b906000526020600020906003020190503373ffffffffffffffffffffffffffffffffffffffff168160010160009054906101000a900473ffffffffffffffffffffffffffffffffffffffff1673ffffffffffffffffffffffffffffffffffffffff1614612be0576040517f08c379a00000000000000000000000000000000000000000000000000000000081526004018080602001828103825260098152602001807f4e6f74206f776e6572000000000000000000000000000000000000000000000081525060200191505060405180910390fd5b6000600260008c81526020019081526020016000206000612c028b8b8b611bb2565b815260200190815260200160002060008b73ffffffffffffffffffffffffffffffffffffffff1673ffffffffffffffffffffffffffffffffffffffff1681526020019081526020016000209050600081600001541415612cca576040517f08c379a00000000000000000000000000000000000000000000000000000000081526004018080602001828103825260108152602001807f496e74656e74206e6f7420666f756e640000000000000000000000000000000081525060200191505060405180910390fd5b612cd68b8a8a8a6107b2565b15612d49576040517f08c379a00000000000000000000000000000000000000000000000000000000081526004018080602001828103825260138152602001807f526f6f6d20616c726561647920626f6f6b65640000000000000000000000000081525060200191505060405180910390fd5b612d573382600001546132b6565b89600160008d81526020019081526020016000206000612d788c8c8c611bb2565b815260200190815260200160002060006101000a81548173ffffffffffffffffffffffffffffffffffffffff021916908373ffffffffffffffffffffffffffffffffffffffff1602179055503373ffffffffffffffffffffffffffffffffffffffff168a73ffffffffffffffffffffffffffffffffffffffff168c7fd8a6485f4b3d0a6ea8c3123ea92f2585aa854d380b83a26dadb80be6292ae0ea84600001548d8d8d6040518085815260200184815260200183815260200182815260200194505050505060405180910390a4600260008c81526020019081526020016000206000612e668b8b8b611bb2565b815260200190815260200160002060008b73ffffffffffffffffffffffffffffffffffffffff1673ffffffffffffffffffffffffffffffffffffffff16815260200190815260200160002060008082016000905560018201600090555050600360008c81526020019081526020016000206000612ee48b8b8b611bb2565b81526020019081526020016000206000612efe91906134cc565b5050505050505050505050565b6000600260008781526020019081526020016000206000612f2d868686611bb2565b815260200190815260200160002060008673ffffffffffffffffffffffffffffffffffffffff1673ffffffffffffffffffffffffffffffffffffffff1681526020019081526020016000209050612f888582600001546130ce565b600260008781526020019081526020016000206000612fa8868686611bb2565b815260200190815260200160002060008673ffffffffffffffffffffffffffffffffffffffff1673ffffffffffffffffffffffffffffffffffffffff16815260200190815260200160002060008082016000905560018201600090555050505050505050565b60008383111582906130bb576040517f08c379a00000000000000000000000000000000000000000000000000000000081526004018080602001828103825283818151815260200191508051906020019080838360005b83811015613080578082015181840152602081019050613065565b50505050905090810190601f1680156130ad5780820380516001836020036101000a031916815260200191505b509250505060405180910390fd5b5060008385039050809150509392505050565b8173ffffffffffffffffffffffffffffffffffffffff166108fc829081150290604051600060405180830381858888f19350505050158015613114573d6000803e3d6000fd5b503373ffffffffffffffffffffffffffffffffffffffff167f47db2abce6d5fbcd80ffd9b4ba74dcde804a746ef732bc7f8a70fabfc912c590826040518082815260200191505060405180910390a25050565b6000600360008781526020019081526020016000206000613189868686611bb2565b815260200190815260200160002085815481106131a257fe5b9060005260206000200160009054906101000a900473ffffffffffffffffffffffffffffffffffffffff1690506003600087815260200190815260200160002060006131ef868686611bb2565b815260200190815260200160002080548061320657fe5b6001900381819060005260206000200160006101000a81549073ffffffffffffffffffffffffffffffffffffffff021916905590558460026000888152602001908152602001600020600061325c878787611bb2565b815260200190815260200160002060008373ffffffffffffffffffffffffffffffffffffffff1673ffffffffffffffffffffffffffffffffffffffff16815260200190815260200160002060010181905550505050505050565b60006132e7670de0b6b3a76400006132d96006548561333690919063ffffffff16565b6133bc90919063ffffffff16565b9050613315600760009054906101000a900473ffffffffffffffffffffffffffffffffffffffff16826130ce565b6133318361332c83856122d390919063ffffffff16565b6130ce565b505050565b60008083141561334957600090506133b6565b600082840290508284828161335a57fe5b04146133b1576040517f08c379a00000000000000000000000000000000000000000000000000000000081526004018080602001828103825260218152602001806135316021913960400191505060405180910390fd5b809150505b92915050565b60006133fe83836040518060400160405280601a81526020017f536166654d6174683a206469766973696f6e206279207a65726f000000000000815250613406565b905092915050565b600080831182906134b2576040517f08c379a00000000000000000000000000000000000000000000000000000000081526004018080602001828103825283818151815260200191508051906020019080838360005b8381101561347757808201518184015260208101905061345c565b50505050905090810190601f1680156134a45780820380516001836020036101000a031916815260200191505b509250505060405180910390fd5b5060008385816134be57fe5b049050809150509392505050565b50805460008255906000526020600020908101906134ea91906134ed565b50565b5b808211156135065760008160009055506001016134ee565b509056fe4f776e61626c653a206e6577206f776e657220697320746865207a65726f2061646472657373536166654d6174683a206d756c7469706c69636174696f6e206f766572666c6f77a2646970667358221220eb77338e327bb32a29533c2ef222ccb7bcffd1d9ab38972413d79a9e305f67b664736f6c634300060c0033",
  "immutableReferences": {},
  "source": "pragma solidity 0.6.12;\n\nimport \"openzeppelin-solidity/contracts/access/Ownable.sol\";\nimport \"openzeppelin-solidity/contracts/math/SafeMath.sol\";\n\ncontract BnBookingEvents {\n    event RoomBooked(\n        uint256 indexed roomId,\n        address indexed booker,\n        address indexed owner,\n        uint256 price,\n        uint256 day,\n        uint256 month,\n        uint256 year\n    );\n    event PaymentSent(address indexed paymentReceiver, uint256 price);\n    event RoomCreated(address indexed owner, uint256 indexed roomId, uint256 price);\n    event RoomRemoved(address indexed owner, uint256 indexed roomId);\n    event PriceChanged(address indexed owner, uint256 indexed roomId, uint256 newPrice);\n    event BookIntentCreated(\n        uint256 indexed roomId,\n        address indexed booker,\n        address indexed owner,\n        uint256 price,\n        uint256 day,\n        uint256 month,\n        uint256 year\n    );\n    event BookIntentRejected(\n        uint256 indexed roomId,\n        address indexed booker,\n        address indexed owner,\n        uint256 price,\n        uint256 day,\n        uint256 month,\n        uint256 year\n    );\n}\n\ncontract BnBooking is Ownable, BnBookingEvents {\n    using SafeMath for uint256;\n\n    struct Room {\n        uint256 roomId;\n        address owner;\n        uint256 price;\n    }\n\n    struct BookingIntent {\n        uint256 price;\n        uint256 positionBooker;\n    }\n\n    // bookings: roomId -> hash(date) -> booker\n    mapping (uint256 => mapping (bytes32 => address)) internal bookings;\n\n    // bookingIntents: roomId -> hash(date) -> possibleBooker -> bookingIntent\n    mapping (uint256 => mapping (bytes32 => mapping (address => BookingIntent))) internal bookingIntents;\n\n    mapping (uint256 => mapping (bytes32 => address[])) internal possibleBookers;\n\n    Room[] public rooms;\n\n    uint256 public nextRoomId = 0;\n\n    uint256 public feeRate;\n\n    address payable public feeReceiver;\n\n    uint256 public constant FEE_RATE_PRECISION = 10 ** 18;\n\n    uint256 public constant MAX_INTENTS = 5;\n\n    constructor(uint256 _feeRate, address payable _feeReceiver) public {\n        feeRate = _feeRate;\n        feeReceiver = _feeReceiver;\n    }\n\n    modifier validDate(uint256 day, uint256 month, uint256 year) {\n        require(isValidDate(day, month, year), \"Invalid date\"); //TODO\n        _;\n    }\n\n    modifier roomExists(uint256 roomId) {\n        require(roomId < nextRoomId, \"Room has not been created\");\n        require(rooms[roomId].owner != address(0), \"Room has been removed\");\n        _;\n    }\n\n    function createRoom(uint256 price) public {\n        require(price > 0, \"Price cant be zero\");\n        uint256 roomId = nextRoomId++;\n        rooms.push(Room({\n            roomId: roomId,\n            price: price,\n            owner: msg.sender\n        }));\n        emit RoomCreated(msg.sender, roomId, price);\n    }\n\n    function setFeeRate(uint256 newFeeRate) public onlyOwner {\n        feeRate = newFeeRate;\n    }\n\n    function setFeeReceiver(address payable newFeeReceiver) public onlyOwner {\n        feeReceiver = newFeeReceiver;\n    }\n\n    function booked(uint256 roomId, uint256 day, uint256 month, uint256 year) public view validDate(day, month, year) returns(bool){\n        return bookings[roomId][getDateId(day, month, year)] != address(0);\n    }\n\n    function intentBook(uint256 roomId, uint256 day, uint256 month, uint256 year) public payable {\n        _intentBook(roomId, day, month, year);\n\n        Room storage room = rooms[roomId];\n        require(msg.value >= room.price, \"Price not reached\");\n        msg.sender.transfer(msg.value.sub(room.price));\n    }\n\n\n\n    function intentBookingBatch(\n        uint256 roomId,\n        uint256 initialDay,\n        uint256 initialMonth,\n        uint256 initialYear,\n        uint256 lastDay,\n        uint256 lastMonth,\n        uint256 lastYear\n    ) public payable {\n        uint256 day = initialDay;\n        uint256 month = initialMonth;\n        uint256 year = initialYear;\n\n        Room storage room = rooms[roomId];\n\n        uint256 accumulatedCost = 0;\n\n\n        while (lessOrEqualDate(day, month, year, lastDay, lastMonth, lastYear)) {\n            _intentBook(roomId, day, month, year);\n            (day, month, year) = incrementDate(day, month, year);\n            accumulatedCost = accumulatedCost.add(room.price);\n        }\n\n        require(msg.value >= accumulatedCost, \"Price not reached\");\n        msg.sender.transfer(msg.value.sub(accumulatedCost));\n    }\n\n\n    function reject(\n        uint256 roomId,\n        address payable booker,\n        uint256 day,\n        uint256 month,\n        uint256 year\n    ) public {\n        _reject(roomId, booker, day, month, year);\n    }\n\n    function rejectBatch(\n        uint256 roomId,\n        address payable booker,\n        uint256 initialDay,\n        uint256 initialMonth,\n        uint256 initialYear,\n        uint256 lastDay,\n        uint256 lastMonth,\n        uint256 lastYear\n    ) public payable {\n        uint256 day = initialDay;\n        uint256 month = initialMonth;\n        uint256 year = initialYear;\n        while (lessOrEqualDate(day, month, year, lastDay, lastMonth, lastYear)) {\n            _reject(roomId, booker, day, month, year);\n            (day, month, year) = incrementDate(day, month, year);\n        }\n    }\n\n    function accept(\n        uint256 roomId,\n        address booker,\n        uint256 day,\n        uint256 month,\n        uint256 year\n    ) public {\n        address[] storage intenters = possibleBookers[roomId][getDateId(day, month, year)];\n        uint256 numberIntenters = intenters.length;\n        for (uint256 i = 0; i < numberIntenters; i++) {\n            if (intenters[i] != booker)\n                _repayAndRemove(roomId, payable(intenters[i]), day, month, year);\n        }\n        _accept(roomId, booker, day, month, year);\n    }\n\n    function acceptBatch(\n        uint256 roomId,\n        address booker,\n        uint256 initialDay,\n        uint256 initialMonth,\n        uint256 initialYear,\n        uint256 lastDay,\n        uint256 lastMonth,\n        uint256 lastYear\n    ) public payable {\n        uint256 day = initialDay;\n        uint256 month = initialMonth;\n        uint256 year = initialYear;\n        while (lessOrEqualDate(day, month, year, lastDay, lastMonth, lastYear)) {\n            _accept(roomId, booker, day, month, year);\n            (day, month, year) = incrementDate(day, month, year);\n        }\n    }\n\n    function removeRoom(uint256 roomId) public roomExists(roomId) {\n        Room storage toRemove = rooms[roomId];\n        require(toRemove.owner == msg.sender || owner() == msg.sender, \"Not owner\");\n        delete(rooms[roomId]);\n        emit RoomRemoved(msg.sender, roomId);\n    }\n\n    function changePrice(uint256 roomId, uint256 newPrice) public roomExists(roomId) {\n        Room storage toChange = rooms[roomId];\n        require(toChange.owner == msg.sender, \"Not owner\");\n        toChange.price = newPrice;\n        emit PriceChanged(msg.sender, roomId, newPrice);\n    }\n\n    function lessOrEqualDate(\n        uint256 firstDay,\n        uint256 firstMonth,\n        uint256 firstYear,\n        uint256 secondDay,\n        uint256 secondMonth,\n        uint256 secondYear\n    ) internal pure returns (bool) {\n        return firstYear < secondYear ||\n        (firstYear == secondYear && firstMonth < secondMonth) ||\n        (firstYear == secondYear && firstMonth == secondMonth && firstDay <= secondDay);\n    }\n\n\n    function _intentBook(\n        uint256 roomId,\n        uint256 day,\n        uint256 month,\n        uint256 year\n    ) internal\n        validDate(day, month, year)\n        roomExists(roomId) {\n        Room storage room = rooms[roomId];\n        require(!booked(roomId, day, month, year), \"Room not available\");\n        require(bookingIntents[roomId][getDateId(day, month, year)][msg.sender].price == 0, \"Intent already created\");\n        require(room.owner != msg.sender, \"Cannot book your own room\");\n\n\n        require(possibleBookers[roomId][getDateId(day, month, year)].length < MAX_INTENTS, \"Max intents reached\");\n        possibleBookers[roomId][getDateId(day, month, year)].push(msg.sender);\n        bookingIntents[roomId][getDateId(day, month, year)][msg.sender] = BookingIntent({\n            price: room.price,\n            positionBooker: possibleBookers[roomId][getDateId(day, month, year)].length - 1\n        });\n\n        emit BookIntentCreated(\n            roomId,\n            msg.sender,\n            room.owner,\n            room.price,\n            day,\n            month,\n            year\n        );\n    }\n\n    function _accept(\n        uint256 roomId,\n        address booker,\n        uint256 day,\n        uint256 month,\n        uint256 year\n    ) internal\n        validDate(day, month, year)\n        roomExists(roomId) {\n        Room storage room = rooms[roomId];\n        require(room.owner == msg.sender, \"Not owner\");\n        BookingIntent storage intent = bookingIntents[roomId][getDateId(day, month, year)][booker];\n        require(intent.price != 0, \"Intent not found\");\n        require(!booked(roomId, day, month, year), \"Room already booked\");\n        splitPayment(msg.sender, intent.price);\n\n        bookings[roomId][getDateId(day, month, year)] = booker;\n        emit RoomBooked(\n            roomId,\n            booker,\n            msg.sender,\n            intent.price,\n            day,\n            month,\n            year\n        );\n        delete bookingIntents[roomId][getDateId(day, month, year)][booker];\n        delete possibleBookers[roomId][getDateId(day, month, year)];\n    }\n\n    function _reject(\n        uint256 roomId,\n        address payable booker,\n        uint256 day,\n        uint256 month,\n        uint256 year\n    ) internal\n        validDate(day, month, year)\n        roomExists(roomId) {\n        Room storage room = rooms[roomId];\n        require(room.owner == msg.sender, \"Not owner\");\n        BookingIntent storage intent = bookingIntents[roomId][getDateId(day, month, year)][booker];\n        require(intent.price != 0, \"Intent not found\");\n        emit BookIntentRejected(\n            roomId,\n            booker,\n            msg.sender,\n            intent.price,\n            day,\n            month,\n            year\n        );\n        sendPayment(booker, intent.price);\n        delete bookingIntents[roomId][getDateId(day, month, year)][booker];\n        moveLastPossibleBooker(roomId, intent.positionBooker, day, month, year);\n    }\n\n    function incrementDate(uint256 day, uint256 month, uint256 year) internal pure returns (uint256, uint256, uint256) {\n        if (isValidDate(day + 1, month, year)) return (day + 1, month, year);\n        if (isValidDate(1, month + 1, year)) return (1, month + 1, year);\n        return (1, 1, year + 1);\n    }\n\n    function moveLastPossibleBooker(uint256 roomId, uint256 newBookerPostion, uint256 day, uint256 month, uint256 year) internal {\n        address movedBooker = possibleBookers[roomId][getDateId(day, month, year)][newBookerPostion];\n        possibleBookers[roomId][getDateId(day, month, year)].pop();\n        bookingIntents[roomId][getDateId(day, month, year)][movedBooker].positionBooker = newBookerPostion;\n    }\n\n    function splitPayment(address payable paymentReceiver, uint256 totalPayment) internal {\n        uint256 fees = totalPayment.mul(feeRate).div(FEE_RATE_PRECISION);\n        sendPayment(feeReceiver, fees);\n        sendPayment(paymentReceiver, totalPayment.sub(fees));\n    }\n\n    function sendPayment(address payable receiver, uint256 payment) internal {\n        receiver.transfer(payment);\n        emit PaymentSent(msg.sender, payment);\n\n    }\n\n    function _repayAndRemove(uint256 roomId, address payable booker, uint256 day, uint256 month, uint256 year) internal {\n        BookingIntent storage intent = bookingIntents[roomId][getDateId(day, month, year)][booker];\n        sendPayment(booker, intent.price);\n        delete bookingIntents[roomId][getDateId(day, month, year)][booker];\n    }\n    function getDateId(uint256 day, uint256 month, uint256 year) internal pure returns(bytes32){\n        return keccak256(abi.encodePacked(day, month, year));\n    }\n\n    function isValidDate(uint256 day, uint256 month, uint256 year) internal pure returns(bool) {\n        if (month < 1 || month > 12) return false;\n        bool dayIsPositive = day > 0;\n        bool leapYear = year % 4 == 0 && (year % 100 != 0 || year % 400 == 0);\n        bool doesntExceedFebruary = (day <= 28) || (leapYear && day <= 29);\n        bool isLongMonth = month == 1 ||\n            month == 3 ||\n            month == 5 ||\n            month == 6 ||\n            month == 8 ||\n            month == 10 ||\n            month == 12;\n        bool isShortMonth = !isLongMonth && month != 2;\n        bool doesntExceedMonth = day <= 30 && isShortMonth || day <= 31 && isLongMonth || doesntExceedFebruary && month == 2;\n        return dayIsPositive && doesntExceedMonth;\n    }\n\n}",
  "sourcePath": "/home/gonza/FIUBA/taller2/2c2020/bookbnb/contracts/BnBooking.sol",
  "compiler": {
    "name": "solc",
    "version": "0.6.12+commit.27d51765.Emscripten.clang"
  },
  "schemaVersion": "3.2.5",
  "updatedAt": "2021-01-03T01:25:04.301Z",
  "devdoc": {
    "kind": "dev",
    "methods": {
      "owner()": {
        "details": "Returns the address of the current owner."
      },
      "renounceOwnership()": {
        "details": "Leaves the contract without owner. It will not be possible to call `onlyOwner` functions anymore. Can only be called by the current owner. NOTE: Renouncing ownership will leave the contract without an owner, thereby removing any functionality that is only available to the owner."
      },
      "transferOwnership(address)": {
        "details": "Transfers ownership of the contract to a new account (`newOwner`). Can only be called by the current owner."
      }
    },
    "version": 1
  },
  "userdoc": {
    "kind": "user",
    "methods": {},
    "version": 1
  }
}