{
  "contractName": "BnBooking",
  "abi": [
    {
      "inputs": [
        {
          "internalType": "uint256",
          "name": "_feeRate",
          "type": "uint256"
        },
        {
          "internalType": "address",
          "name": "_feeReceiver",
          "type": "address"
        }
      ],
      "stateMutability": "nonpayable",
      "type": "constructor"
    },
    {
      "anonymous": false,
      "inputs": [
        {
          "indexed": true,
          "internalType": "uint256",
          "name": "roomId",
          "type": "uint256"
        },
        {
          "indexed": true,
          "internalType": "address",
          "name": "booker",
          "type": "address"
        },
        {
          "indexed": true,
          "internalType": "address",
          "name": "owner",
          "type": "address"
        },
        {
          "indexed": false,
          "internalType": "uint256",
          "name": "price",
          "type": "uint256"
        },
        {
          "indexed": false,
          "internalType": "uint256",
          "name": "day",
          "type": "uint256"
        },
        {
          "indexed": false,
          "internalType": "uint256",
          "name": "month",
          "type": "uint256"
        },
        {
          "indexed": false,
          "internalType": "uint256",
          "name": "year",
          "type": "uint256"
        }
      ],
      "name": "BookIntentCreated",
      "type": "event"
    },
    {
      "anonymous": false,
      "inputs": [
        {
          "indexed": true,
          "internalType": "uint256",
          "name": "roomId",
          "type": "uint256"
        },
        {
          "indexed": true,
          "internalType": "address",
          "name": "booker",
          "type": "address"
        },
        {
          "indexed": true,
          "internalType": "address",
          "name": "owner",
          "type": "address"
        },
        {
          "indexed": false,
          "internalType": "uint256",
          "name": "price",
          "type": "uint256"
        },
        {
          "indexed": false,
          "internalType": "uint256",
          "name": "day",
          "type": "uint256"
        },
        {
          "indexed": false,
          "internalType": "uint256",
          "name": "month",
          "type": "uint256"
        },
        {
          "indexed": false,
          "internalType": "uint256",
          "name": "year",
          "type": "uint256"
        }
      ],
      "name": "BookIntentRejected",
      "type": "event"
    },
    {
      "anonymous": false,
      "inputs": [
        {
          "indexed": true,
          "internalType": "address",
          "name": "previousOwner",
          "type": "address"
        },
        {
          "indexed": true,
          "internalType": "address",
          "name": "newOwner",
          "type": "address"
        }
      ],
      "name": "OwnershipTransferred",
      "type": "event"
    },
    {
      "anonymous": false,
      "inputs": [
        {
          "indexed": true,
          "internalType": "address",
          "name": "paymentReceiver",
          "type": "address"
        },
        {
          "indexed": false,
          "internalType": "uint256",
          "name": "price",
          "type": "uint256"
        }
      ],
      "name": "PaymentSent",
      "type": "event"
    },
    {
      "anonymous": false,
      "inputs": [
        {
          "indexed": true,
          "internalType": "address",
          "name": "owner",
          "type": "address"
        },
        {
          "indexed": true,
          "internalType": "uint256",
          "name": "roomId",
          "type": "uint256"
        },
        {
          "indexed": false,
          "internalType": "uint256",
          "name": "newPrice",
          "type": "uint256"
        }
      ],
      "name": "PriceChanged",
      "type": "event"
    },
    {
      "anonymous": false,
      "inputs": [
        {
          "indexed": true,
          "internalType": "uint256",
          "name": "roomId",
          "type": "uint256"
        },
        {
          "indexed": true,
          "internalType": "address",
          "name": "booker",
          "type": "address"
        },
        {
          "indexed": true,
          "internalType": "address",
          "name": "owner",
          "type": "address"
        },
        {
          "indexed": false,
          "internalType": "uint256",
          "name": "price",
          "type": "uint256"
        },
        {
          "indexed": false,
          "internalType": "uint256",
          "name": "day",
          "type": "uint256"
        },
        {
          "indexed": false,
          "internalType": "uint256",
          "name": "month",
          "type": "uint256"
        },
        {
          "indexed": false,
          "internalType": "uint256",
          "name": "year",
          "type": "uint256"
        }
      ],
      "name": "RoomBooked",
      "type": "event"
    },
    {
      "anonymous": false,
      "inputs": [
        {
          "indexed": true,
          "internalType": "address",
          "name": "owner",
          "type": "address"
        },
        {
          "indexed": true,
          "internalType": "uint256",
          "name": "roomId",
          "type": "uint256"
        },
        {
          "indexed": false,
          "internalType": "uint256",
          "name": "price",
          "type": "uint256"
        }
      ],
      "name": "RoomCreated",
      "type": "event"
    },
    {
      "anonymous": false,
      "inputs": [
        {
          "indexed": true,
          "internalType": "address",
          "name": "owner",
          "type": "address"
        },
        {
          "indexed": true,
          "internalType": "uint256",
          "name": "roomId",
          "type": "uint256"
        }
      ],
      "name": "RoomRemoved",
      "type": "event"
    },
    {
      "inputs": [],
      "name": "FEE_RATE_PRECISION",
      "outputs": [
        {
          "internalType": "uint256",
          "name": "",
          "type": "uint256"
        }
      ],
      "stateMutability": "view",
      "type": "function",
      "constant": true
    },
    {
      "inputs": [],
      "name": "MAX_INTENTS",
      "outputs": [
        {
          "internalType": "uint256",
          "name": "",
          "type": "uint256"
        }
      ],
      "stateMutability": "view",
      "type": "function",
      "constant": true
    },
    {
      "inputs": [
        {
          "internalType": "address",
          "name": "",
          "type": "address"
        }
      ],
      "name": "accumulatedPayments",
      "outputs": [
        {
          "internalType": "uint256",
          "name": "",
          "type": "uint256"
        }
      ],
      "stateMutability": "view",
      "type": "function",
      "constant": true
    },
    {
      "inputs": [],
      "name": "feeRate",
      "outputs": [
        {
          "internalType": "uint256",
          "name": "",
          "type": "uint256"
        }
      ],
      "stateMutability": "view",
      "type": "function",
      "constant": true
    },
    {
      "inputs": [],
      "name": "feeReceiver",
      "outputs": [
        {
          "internalType": "address",
          "name": "",
          "type": "address"
        }
      ],
      "stateMutability": "view",
      "type": "function",
      "constant": true
    },
    {
      "inputs": [],
      "name": "nextRoomId",
      "outputs": [
        {
          "internalType": "uint256",
          "name": "",
          "type": "uint256"
        }
      ],
      "stateMutability": "view",
      "type": "function",
      "constant": true
    },
    {
      "inputs": [],
      "name": "owner",
      "outputs": [
        {
          "internalType": "address",
          "name": "",
          "type": "address"
        }
      ],
      "stateMutability": "view",
      "type": "function",
      "constant": true
    },
    {
      "inputs": [],
      "name": "renounceOwnership",
      "outputs": [],
      "stateMutability": "nonpayable",
      "type": "function"
    },
    {
      "inputs": [
        {
          "internalType": "uint256",
          "name": "",
          "type": "uint256"
        }
      ],
      "name": "rooms",
      "outputs": [
        {
          "internalType": "uint256",
          "name": "roomId",
          "type": "uint256"
        },
        {
          "internalType": "address",
          "name": "owner",
          "type": "address"
        },
        {
          "internalType": "uint256",
          "name": "price",
          "type": "uint256"
        }
      ],
      "stateMutability": "view",
      "type": "function",
      "constant": true
    },
    {
      "inputs": [
        {
          "internalType": "address",
          "name": "newOwner",
          "type": "address"
        }
      ],
      "name": "transferOwnership",
      "outputs": [],
      "stateMutability": "nonpayable",
      "type": "function"
    },
    {
      "inputs": [
        {
          "internalType": "uint256",
          "name": "price",
          "type": "uint256"
        }
      ],
      "name": "createRoom",
      "outputs": [],
      "stateMutability": "nonpayable",
      "type": "function"
    },
    {
      "inputs": [
        {
          "internalType": "uint256",
          "name": "newFeeRate",
          "type": "uint256"
        }
      ],
      "name": "setFeeRate",
      "outputs": [],
      "stateMutability": "nonpayable",
      "type": "function"
    },
    {
      "inputs": [
        {
          "internalType": "address",
          "name": "newFeeReceiver",
          "type": "address"
        }
      ],
      "name": "setFeeReceiver",
      "outputs": [],
      "stateMutability": "nonpayable",
      "type": "function"
    },
    {
      "inputs": [
        {
          "internalType": "uint256",
          "name": "roomId",
          "type": "uint256"
        },
        {
          "internalType": "uint256",
          "name": "day",
          "type": "uint256"
        },
        {
          "internalType": "uint256",
          "name": "month",
          "type": "uint256"
        },
        {
          "internalType": "uint256",
          "name": "year",
          "type": "uint256"
        }
      ],
      "name": "booked",
      "outputs": [
        {
          "internalType": "bool",
          "name": "",
          "type": "bool"
        }
      ],
      "stateMutability": "view",
      "type": "function",
      "constant": true
    },
    {
      "inputs": [
        {
          "internalType": "uint256",
          "name": "roomId",
          "type": "uint256"
        },
        {
          "internalType": "uint256",
          "name": "day",
          "type": "uint256"
        },
        {
          "internalType": "uint256",
          "name": "month",
          "type": "uint256"
        },
        {
          "internalType": "uint256",
          "name": "year",
          "type": "uint256"
        }
      ],
      "name": "intentBook",
      "outputs": [],
      "stateMutability": "payable",
      "type": "function",
      "payable": true
    },
    {
      "inputs": [
        {
          "internalType": "uint256",
          "name": "roomId",
          "type": "uint256"
        },
        {
          "internalType": "address",
          "name": "booker",
          "type": "address"
        },
        {
          "internalType": "uint256",
          "name": "day",
          "type": "uint256"
        },
        {
          "internalType": "uint256",
          "name": "month",
          "type": "uint256"
        },
        {
          "internalType": "uint256",
          "name": "year",
          "type": "uint256"
        }
      ],
      "name": "reject",
      "outputs": [],
      "stateMutability": "nonpayable",
      "type": "function"
    },
    {
      "inputs": [
        {
          "internalType": "uint256",
          "name": "roomId",
          "type": "uint256"
        },
        {
          "internalType": "address",
          "name": "booker",
          "type": "address"
        },
        {
          "internalType": "uint256",
          "name": "day",
          "type": "uint256"
        },
        {
          "internalType": "uint256",
          "name": "month",
          "type": "uint256"
        },
        {
          "internalType": "uint256",
          "name": "year",
          "type": "uint256"
        }
      ],
      "name": "accept",
      "outputs": [],
      "stateMutability": "nonpayable",
      "type": "function"
    },
    {
      "inputs": [
        {
          "internalType": "uint256",
          "name": "roomId",
          "type": "uint256"
        }
      ],
      "name": "removeRoom",
      "outputs": [],
      "stateMutability": "nonpayable",
      "type": "function"
    },
    {
      "inputs": [
        {
          "internalType": "uint256",
          "name": "roomId",
          "type": "uint256"
        },
        {
          "internalType": "uint256",
          "name": "newPrice",
          "type": "uint256"
        }
      ],
      "name": "changePrice",
      "outputs": [],
      "stateMutability": "nonpayable",
      "type": "function"
    },
    {
      "inputs": [],
      "name": "withdraw",
      "outputs": [],
      "stateMutability": "nonpayable",
      "type": "function"
    }
  ],
  "bytecode": "0x608060405260006007553480156200001657600080fd5b506040516200327838038062003278833981810160405260408110156200003c57600080fd5b8101908080519060200190929190805190602001909291905050506000620000696200015e60201b60201c565b9050806000806101000a81548173ffffffffffffffffffffffffffffffffffffffff021916908373ffffffffffffffffffffffffffffffffffffffff1602179055508073ffffffffffffffffffffffffffffffffffffffff16600073ffffffffffffffffffffffffffffffffffffffff167f8be0079c531659141344cd1fd0a4f28419497f9722a3daafe3b4186f6b6457e060405160405180910390a350600180819055508160088190555080600960006101000a81548173ffffffffffffffffffffffffffffffffffffffff021916908373ffffffffffffffffffffffffffffffffffffffff160217905550505062000166565b600033905090565b61310280620001766000396000f3fe60806040526004361061011f5760003560e01c8063952d4af5116100a0578063bbba825711610064578063bbba825714610530578063de3b24861461056b578063efdcd974146105d0578063f2fde38b14610621578063f4ca4d1d146106725761011f565b8063952d4af5146103db578063978bbdb914610406578063b3de019c14610431578063b3f0067414610476578063ba0038fb146104b75761011f565b8063461d60be116100e7578063461d60be14610283578063541116a1146102be578063623519321461030a578063715018a6146103835780638da5cb5b1461039a5761011f565b806307a52cab146101245780630f466f961461014f5780631bae0ac8146101be5780633ccfd60b1461023157806345596e2e14610248575b600080fd5b34801561013057600080fd5b5061013961069d565b6040518082815260200191505060405180910390f35b34801561015b57600080fd5b506101a66004803603608081101561017257600080fd5b81019080803590602001909291908035906020019092919080359060200190929190803590602001909291905050506106a3565b60405180821515815260200191505060405180910390f35b3480156101ca57600080fd5b506101f7600480360360208110156101e157600080fd5b81019080803590602001909291905050506107b1565b604051808481526020018373ffffffffffffffffffffffffffffffffffffffff168152602001828152602001935050505060405180910390f35b34801561023d57600080fd5b50610246610808565b005b34801561025457600080fd5b506102816004803603602081101561026b57600080fd5b81019080803590602001909291905050506109af565b005b34801561028f57600080fd5b506102bc600480360360208110156102a657600080fd5b8101908080359060200190929190505050610a81565b005b610308600480360360808110156102d457600080fd5b8101908080359060200190929190803590602001909291908035906020019092919080359060200190929190505050610d99565b005b34801561031657600080fd5b50610381600480360360a081101561032d57600080fd5b8101908080359060200190929190803573ffffffffffffffffffffffffffffffffffffffff169060200190929190803590602001909291908035906020019092919080359060200190929190505050611547565b005b34801561038f57600080fd5b50610398611918565b005b3480156103a657600080fd5b506103af611a9e565b604051808273ffffffffffffffffffffffffffffffffffffffff16815260200191505060405180910390f35b3480156103e757600080fd5b506103f0611ac7565b6040518082815260200191505060405180910390f35b34801561041257600080fd5b5061041b611acc565b6040518082815260200191505060405180910390f35b34801561043d57600080fd5b506104746004803603604081101561045457600080fd5b810190808035906020019092919080359060200190929190505050611ad2565b005b34801561048257600080fd5b5061048b611d6d565b604051808273ffffffffffffffffffffffffffffffffffffffff16815260200191505060405180910390f35b3480156104c357600080fd5b5061052e600480360360a08110156104da57600080fd5b8101908080359060200190929190803573ffffffffffffffffffffffffffffffffffffffff169060200190929190803590602001909291908035906020019092919080359060200190929190505050611d93565b005b34801561053c57600080fd5b506105696004803603602081101561055357600080fd5b8101908080359060200190929190505050612382565b005b34801561057757600080fd5b506105ba6004803603602081101561058e57600080fd5b81019080803573ffffffffffffffffffffffffffffffffffffffff169060200190929190505050612519565b6040518082815260200191505060405180910390f35b3480156105dc57600080fd5b5061061f600480360360208110156105f357600080fd5b81019080803573ffffffffffffffffffffffffffffffffffffffff169060200190929190505050612531565b005b34801561062d57600080fd5b506106706004803603602081101561064457600080fd5b81019080803573ffffffffffffffffffffffffffffffffffffffff16906020019092919050505061263d565b005b34801561067e57600080fd5b50610687612848565b6040518082815260200191505060405180910390f35b60075481565b60008383836106b3838383612854565b610725576040517f08c379a000000000000000000000000000000000000000000000000000000000815260040180806020018281038252600c8152602001807f496e76616c69642064617465000000000000000000000000000000000000000081525060200191505060405180910390fd5b600073ffffffffffffffffffffffffffffffffffffffff16600260008a8152602001908152602001600020600061075d8a8a8a61296a565b815260200190815260200160002060009054906101000a900473ffffffffffffffffffffffffffffffffffffffff1673ffffffffffffffffffffffffffffffffffffffff1614159350505050949350505050565b600681815481106107be57fe5b90600052602060002090600302016000915090508060000154908060010160009054906101000a900473ffffffffffffffffffffffffffffffffffffffff16908060020154905083565b60026001541415610881576040517f08c379a000000000000000000000000000000000000000000000000000000000815260040180806020018281038252601f8152602001807f5265656e7472616e637947756172643a207265656e7472616e742063616c6c0081525060200191505060405180910390fd5b60026001819055506000600560003373ffffffffffffffffffffffffffffffffffffffff1673ffffffffffffffffffffffffffffffffffffffff168152602001908152602001600020549050600560003373ffffffffffffffffffffffffffffffffffffffff1673ffffffffffffffffffffffffffffffffffffffff168152602001908152602001600020600090553373ffffffffffffffffffffffffffffffffffffffff166108fc829081150290604051600060405180830381858888f19350505050158015610956573d6000803e3d6000fd5b503373ffffffffffffffffffffffffffffffffffffffff167f47db2abce6d5fbcd80ffd9b4ba74dcde804a746ef732bc7f8a70fabfc912c590826040518082815260200191505060405180910390a25060018081905550565b6109b76129ac565b73ffffffffffffffffffffffffffffffffffffffff1660008054906101000a900473ffffffffffffffffffffffffffffffffffffffff1673ffffffffffffffffffffffffffffffffffffffff1614610a77576040517f08c379a00000000000000000000000000000000000000000000000000000000081526004018080602001828103825260208152602001807f4f776e61626c653a2063616c6c6572206973206e6f7420746865206f776e657281525060200191505060405180910390fd5b8060088190555050565b806007548110610af9576040517f08c379a00000000000000000000000000000000000000000000000000000000081526004018080602001828103825260198152602001807f526f6f6d20686173206e6f74206265656e20637265617465640000000000000081525060200191505060405180910390fd5b600073ffffffffffffffffffffffffffffffffffffffff1660068281548110610b1e57fe5b906000526020600020906003020160010160009054906101000a900473ffffffffffffffffffffffffffffffffffffffff1673ffffffffffffffffffffffffffffffffffffffff161415610bda576040517f08c379a00000000000000000000000000000000000000000000000000000000081526004018080602001828103825260158152602001807f526f6f6d20686173206265656e2072656d6f766564000000000000000000000081525060200191505060405180910390fd5b600060068381548110610be957fe5b906000526020600020906003020190503373ffffffffffffffffffffffffffffffffffffffff168160010160009054906101000a900473ffffffffffffffffffffffffffffffffffffffff1673ffffffffffffffffffffffffffffffffffffffff161480610c8957503373ffffffffffffffffffffffffffffffffffffffff16610c71611a9e565b73ffffffffffffffffffffffffffffffffffffffff16145b610cfb576040517f08c379a00000000000000000000000000000000000000000000000000000000081526004018080602001828103825260098152602001807f4e6f74206f776e6572000000000000000000000000000000000000000000000081525060200191505060405180910390fd5b60068381548110610d0857fe5b90600052602060002090600302016000808201600090556001820160006101000a81549073ffffffffffffffffffffffffffffffffffffffff021916905560028201600090555050823373ffffffffffffffffffffffffffffffffffffffff167fb0c1b3c32cac986f4cc1171cd7f48a359f031abfa919e63ef8e808313f08b18e60405160405180910390a3505050565b828282610da7838383612854565b610e19576040517f08c379a000000000000000000000000000000000000000000000000000000000815260040180806020018281038252600c8152602001807f496e76616c69642064617465000000000000000000000000000000000000000081525060200191505060405180910390fd5b866007548110610e91576040517f08c379a00000000000000000000000000000000000000000000000000000000081526004018080602001828103825260198152602001807f526f6f6d20686173206e6f74206265656e20637265617465640000000000000081525060200191505060405180910390fd5b600073ffffffffffffffffffffffffffffffffffffffff1660068281548110610eb657fe5b906000526020600020906003020160010160009054906101000a900473ffffffffffffffffffffffffffffffffffffffff1673ffffffffffffffffffffffffffffffffffffffff161415610f72576040517f08c379a00000000000000000000000000000000000000000000000000000000081526004018080602001828103825260158152602001807f526f6f6d20686173206265656e2072656d6f766564000000000000000000000081525060200191505060405180910390fd5b610f7e888888886106a3565b15610ff1576040517f08c379a00000000000000000000000000000000000000000000000000000000081526004018080602001828103825260128152602001807f526f6f6d206e6f7420617661696c61626c65000000000000000000000000000081525060200191505060405180910390fd5b6000600360008a815260200190815260200160002060006110138a8a8a61296a565b815260200190815260200160002060003373ffffffffffffffffffffffffffffffffffffffff1673ffffffffffffffffffffffffffffffffffffffff16815260200190815260200160002060000154146110d5576040517f08c379a00000000000000000000000000000000000000000000000000000000081526004018080602001828103825260168152602001807f496e74656e7420616c726561647920637265617465640000000000000000000081525060200191505060405180910390fd5b6000600689815481106110e457fe5b906000526020600020906003020190503373ffffffffffffffffffffffffffffffffffffffff168160010160009054906101000a900473ffffffffffffffffffffffffffffffffffffffff1673ffffffffffffffffffffffffffffffffffffffff1614156111ba576040517f08c379a00000000000000000000000000000000000000000000000000000000081526004018080602001828103825260198152602001807f43616e6e6f7420626f6f6b20796f7572206f776e20726f6f6d0000000000000081525060200191505060405180910390fd5b8060020154341015611234576040517f08c379a00000000000000000000000000000000000000000000000000000000081526004018080602001828103825260118152602001807f5072696365206e6f74207265616368656400000000000000000000000000000081525060200191505060405180910390fd5b3373ffffffffffffffffffffffffffffffffffffffff166108fc6112658360020154346129b490919063ffffffff16565b9081150290604051600060405180830381858888f19350505050158015611290573d6000803e3d6000fd5b506005600460008b815260200190815260200160002060006112b38b8b8b61296a565b81526020019081526020016000208054905010611338576040517f08c379a00000000000000000000000000000000000000000000000000000000081526004018080602001828103825260138152602001807f4d617820696e74656e747320726561636865640000000000000000000000000081525060200191505060405180910390fd5b600460008a815260200190815260200160002060006113588a8a8a61296a565b8152602001908152602001600020339080600181540180825580915050600190039060005260206000200160009091909190916101000a81548173ffffffffffffffffffffffffffffffffffffffff021916908373ffffffffffffffffffffffffffffffffffffffff1602179055506040518060400160405280826002015481526020016001600460008d815260200190815260200160002060006113fe8d8d8d61296a565b81526020019081526020016000208054905003815250600360008b815260200190815260200160002060006114348b8b8b61296a565b815260200190815260200160002060003373ffffffffffffffffffffffffffffffffffffffff1673ffffffffffffffffffffffffffffffffffffffff16815260200190815260200160002060008201518160000155602082015181600101559050508060010160009054906101000a900473ffffffffffffffffffffffffffffffffffffffff1673ffffffffffffffffffffffffffffffffffffffff163373ffffffffffffffffffffffffffffffffffffffff168a7f9d58b08712bc1e874d7c3be499f112091776ce2e76f1983e106e62f3de116f7684600201548c8c8c6040518085815260200184815260200183815260200182815260200194505050505060405180910390a4505050505050505050565b8460075481106115bf576040517f08c379a00000000000000000000000000000000000000000000000000000000081526004018080602001828103825260198152602001807f526f6f6d20686173206e6f74206265656e20637265617465640000000000000081525060200191505060405180910390fd5b600073ffffffffffffffffffffffffffffffffffffffff16600682815481106115e457fe5b906000526020600020906003020160010160009054906101000a900473ffffffffffffffffffffffffffffffffffffffff1673ffffffffffffffffffffffffffffffffffffffff1614156116a0576040517f08c379a00000000000000000000000000000000000000000000000000000000081526004018080602001828103825260158152602001807f526f6f6d20686173206265656e2072656d6f766564000000000000000000000081525060200191505060405180910390fd5b6000600687815481106116af57fe5b906000526020600020906003020190503373ffffffffffffffffffffffffffffffffffffffff168160010160009054906101000a900473ffffffffffffffffffffffffffffffffffffffff1673ffffffffffffffffffffffffffffffffffffffff1614611784576040517f08c379a00000000000000000000000000000000000000000000000000000000081526004018080602001828103825260098152602001807f4e6f74206f776e6572000000000000000000000000000000000000000000000081525060200191505060405180910390fd5b60006003600089815260200190815260200160002060006117a688888861296a565b815260200190815260200160002060008873ffffffffffffffffffffffffffffffffffffffff1673ffffffffffffffffffffffffffffffffffffffff168152602001908152602001600020905060008160000154141561186e576040517f08c379a00000000000000000000000000000000000000000000000000000000081526004018080602001828103825260108152602001807f496e74656e74206e6f7420666f756e640000000000000000000000000000000081525060200191505060405180910390fd5b3373ffffffffffffffffffffffffffffffffffffffff168773ffffffffffffffffffffffffffffffffffffffff16897f63ea553483a92dc4cdae148a75656ef0ee49a22a2b969de4b7a85edda2ba5db084600001548a8a8a6040518085815260200184815260200183815260200182815260200194505050505060405180910390a46118fd88888888886129fe565b61190e888260010154888888612b01565b5050505050505050565b6119206129ac565b73ffffffffffffffffffffffffffffffffffffffff1660008054906101000a900473ffffffffffffffffffffffffffffffffffffffff1673ffffffffffffffffffffffffffffffffffffffff16146119e0576040517f08c379a00000000000000000000000000000000000000000000000000000000081526004018080602001828103825260208152602001807f4f776e61626c653a2063616c6c6572206973206e6f7420746865206f776e657281525060200191505060405180910390fd5b600073ffffffffffffffffffffffffffffffffffffffff1660008054906101000a900473ffffffffffffffffffffffffffffffffffffffff1673ffffffffffffffffffffffffffffffffffffffff167f8be0079c531659141344cd1fd0a4f28419497f9722a3daafe3b4186f6b6457e060405160405180910390a360008060006101000a81548173ffffffffffffffffffffffffffffffffffffffff021916908373ffffffffffffffffffffffffffffffffffffffff160217905550565b60008060009054906101000a900473ffffffffffffffffffffffffffffffffffffffff16905090565b600581565b60085481565b816007548110611b4a576040517f08c379a00000000000000000000000000000000000000000000000000000000081526004018080602001828103825260198152602001807f526f6f6d20686173206e6f74206265656e20637265617465640000000000000081525060200191505060405180910390fd5b600073ffffffffffffffffffffffffffffffffffffffff1660068281548110611b6f57fe5b906000526020600020906003020160010160009054906101000a900473ffffffffffffffffffffffffffffffffffffffff1673ffffffffffffffffffffffffffffffffffffffff161415611c2b576040517f08c379a00000000000000000000000000000000000000000000000000000000081526004018080602001828103825260158152602001807f526f6f6d20686173206265656e2072656d6f766564000000000000000000000081525060200191505060405180910390fd5b600060068481548110611c3a57fe5b906000526020600020906003020190503373ffffffffffffffffffffffffffffffffffffffff168160010160009054906101000a900473ffffffffffffffffffffffffffffffffffffffff1673ffffffffffffffffffffffffffffffffffffffff1614611d0f576040517f08c379a00000000000000000000000000000000000000000000000000000000081526004018080602001828103825260098152602001807f4e6f74206f776e6572000000000000000000000000000000000000000000000081525060200191505060405180910390fd5b828160020181905550833373ffffffffffffffffffffffffffffffffffffffff167f4d624906ce6fd4e4b8b649463516ff505029a1903a8cc34bd82b4ca0f9a479de856040518082815260200191505060405180910390a350505050565b600960009054906101000a900473ffffffffffffffffffffffffffffffffffffffff1681565b846007548110611e0b576040517f08c379a00000000000000000000000000000000000000000000000000000000081526004018080602001828103825260198152602001807f526f6f6d20686173206e6f74206265656e20637265617465640000000000000081525060200191505060405180910390fd5b600073ffffffffffffffffffffffffffffffffffffffff1660068281548110611e3057fe5b906000526020600020906003020160010160009054906101000a900473ffffffffffffffffffffffffffffffffffffffff1673ffffffffffffffffffffffffffffffffffffffff161415611eec576040517f08c379a00000000000000000000000000000000000000000000000000000000081526004018080602001828103825260158152602001807f526f6f6d20686173206265656e2072656d6f766564000000000000000000000081525060200191505060405180910390fd5b600060068781548110611efb57fe5b906000526020600020906003020190503373ffffffffffffffffffffffffffffffffffffffff168160010160009054906101000a900473ffffffffffffffffffffffffffffffffffffffff1673ffffffffffffffffffffffffffffffffffffffff1614611fd0576040517f08c379a00000000000000000000000000000000000000000000000000000000081526004018080602001828103825260098152602001807f4e6f74206f776e6572000000000000000000000000000000000000000000000081525060200191505060405180910390fd5b6000600360008981526020019081526020016000206000611ff288888861296a565b815260200190815260200160002060008873ffffffffffffffffffffffffffffffffffffffff1673ffffffffffffffffffffffffffffffffffffffff16815260200190815260200160002090506000816000015414156120ba576040517f08c379a00000000000000000000000000000000000000000000000000000000081526004018080602001828103825260108152602001807f496e74656e74206e6f7420666f756e640000000000000000000000000000000081525060200191505060405180910390fd5b6000600460008a815260200190815260200160002060006120dc89898961296a565b8152602001908152602001600020905060008180549050905060005b818110156121c0578973ffffffffffffffffffffffffffffffffffffffff1683828154811061212357fe5b9060005260206000200160009054906101000a900473ffffffffffffffffffffffffffffffffffffffff1673ffffffffffffffffffffffffffffffffffffffff16141561216f576121b3565b6121b28b84838154811061217f57fe5b9060005260206000200160009054906101000a900473ffffffffffffffffffffffffffffffffffffffff168b8b8b6129fe565b5b80806001019150506120f8565b506121cf338460000154612c50565b88600260008c815260200190815260200160002060006121f08b8b8b61296a565b815260200190815260200160002060006101000a81548173ffffffffffffffffffffffffffffffffffffffff021916908373ffffffffffffffffffffffffffffffffffffffff1602179055503373ffffffffffffffffffffffffffffffffffffffff168973ffffffffffffffffffffffffffffffffffffffff168b7fd8a6485f4b3d0a6ea8c3123ea92f2585aa854d380b83a26dadb80be6292ae0ea86600001548c8c8c6040518085815260200184815260200183815260200182815260200194505050505060405180910390a4600360008b815260200190815260200160002060006122de8a8a8a61296a565b815260200190815260200160002060008a73ffffffffffffffffffffffffffffffffffffffff1673ffffffffffffffffffffffffffffffffffffffff16815260200190815260200160002060008082016000905560018201600090555050600460008b8152602001908152602001600020600061235c8a8a8a61296a565b815260200190815260200160002060006123769190613047565b50505050505050505050565b600081116123f8576040517f08c379a00000000000000000000000000000000000000000000000000000000081526004018080602001828103825260128152602001807f50726963652063616e74206265207a65726f000000000000000000000000000081525060200191505060405180910390fd5b600060076000815480929190600101919050559050600660405180606001604052808381526020013373ffffffffffffffffffffffffffffffffffffffff1681526020018481525090806001815401808255809150506001900390600052602060002090600302016000909190919091506000820151816000015560208201518160010160006101000a81548173ffffffffffffffffffffffffffffffffffffffff021916908373ffffffffffffffffffffffffffffffffffffffff160217905550604082015181600201555050803373ffffffffffffffffffffffffffffffffffffffff167f0441c8f3d8bb6f2798e54498dec697384f8effb97b5fc9b9bc5776afffde6530846040518082815260200191505060405180910390a35050565b60056020528060005260406000206000915090505481565b6125396129ac565b73ffffffffffffffffffffffffffffffffffffffff1660008054906101000a900473ffffffffffffffffffffffffffffffffffffffff1673ffffffffffffffffffffffffffffffffffffffff16146125f9576040517f08c379a00000000000000000000000000000000000000000000000000000000081526004018080602001828103825260208152602001807f4f776e61626c653a2063616c6c6572206973206e6f7420746865206f776e657281525060200191505060405180910390fd5b80600960006101000a81548173ffffffffffffffffffffffffffffffffffffffff021916908373ffffffffffffffffffffffffffffffffffffffff16021790555050565b6126456129ac565b73ffffffffffffffffffffffffffffffffffffffff1660008054906101000a900473ffffffffffffffffffffffffffffffffffffffff1673ffffffffffffffffffffffffffffffffffffffff1614612705576040517f08c379a00000000000000000000000000000000000000000000000000000000081526004018080602001828103825260208152602001807f4f776e61626c653a2063616c6c6572206973206e6f7420746865206f776e657281525060200191505060405180910390fd5b600073ffffffffffffffffffffffffffffffffffffffff168173ffffffffffffffffffffffffffffffffffffffff16141561278b576040517f08c379a00000000000000000000000000000000000000000000000000000000081526004018080602001828103825260268152602001806130866026913960400191505060405180910390fd5b8073ffffffffffffffffffffffffffffffffffffffff1660008054906101000a900473ffffffffffffffffffffffffffffffffffffffff1673ffffffffffffffffffffffffffffffffffffffff167f8be0079c531659141344cd1fd0a4f28419497f9722a3daafe3b4186f6b6457e060405160405180910390a3806000806101000a81548173ffffffffffffffffffffffffffffffffffffffff021916908373ffffffffffffffffffffffffffffffffffffffff16021790555050565b670de0b6b3a764000081565b6000806000851190506000806004858161286a57fe5b06148015612899575060006064858161287f57fe5b0614158061289857506000610190858161289557fe5b06145b5b90506000601c871115806128b757508180156128b65750601d8711155b5b9050600060018714806128ca5750600387145b806128d55750600587145b806128e05750600687145b806128eb5750600887145b806128f65750600a87145b806129015750600c87145b9050600081158015612914575060028814155b90506000601e8a111580156129265750815b8061293b5750601f8a1115801561293a5750825b5b8061294f575083801561294e5750600289145b5b905085801561295b5750805b96505050505050509392505050565b60008383836040516020018084815260200183815260200182815260200193505050506040516020818303038152906040528051906020012090509392505050565b600033905090565b60006129f683836040518060400160405280601e81526020017f536166654d6174683a207375627472616374696f6e206f766572666c6f770000815250612cd0565b905092915050565b6000600360008781526020019081526020016000206000612a2086868661296a565b815260200190815260200160002060008673ffffffffffffffffffffffffffffffffffffffff1673ffffffffffffffffffffffffffffffffffffffff1681526020019081526020016000209050612a7b858260000154612d90565b600360008781526020019081526020016000206000612a9b86868661296a565b815260200190815260200160002060008673ffffffffffffffffffffffffffffffffffffffff1673ffffffffffffffffffffffffffffffffffffffff16815260200190815260200160002060008082016000905560018201600090555050505050505050565b6000600460008781526020019081526020016000206000612b2386868661296a565b81526020019081526020016000208581548110612b3c57fe5b9060005260206000200160009054906101000a900473ffffffffffffffffffffffffffffffffffffffff169050600460008781526020019081526020016000206000612b8986868661296a565b8152602001908152602001600020805480612ba057fe5b6001900381819060005260206000200160006101000a81549073ffffffffffffffffffffffffffffffffffffffff0219169055905584600360008881526020019081526020016000206000612bf687878761296a565b815260200190815260200160002060008373ffffffffffffffffffffffffffffffffffffffff1673ffffffffffffffffffffffffffffffffffffffff16815260200190815260200160002060010181905550505050505050565b6000612c81670de0b6b3a7640000612c7360085485612e2990919063ffffffff16565b612eaf90919063ffffffff16565b9050612caf600960009054906101000a900473ffffffffffffffffffffffffffffffffffffffff1682612d90565b612ccb83612cc683856129b490919063ffffffff16565b612d90565b505050565b6000838311158290612d7d576040517f08c379a00000000000000000000000000000000000000000000000000000000081526004018080602001828103825283818151815260200191508051906020019080838360005b83811015612d42578082015181840152602081019050612d27565b50505050905090810190601f168015612d6f5780820380516001836020036101000a031916815260200191505b509250505060405180910390fd5b5060008385039050809150509392505050565b612de281600560008573ffffffffffffffffffffffffffffffffffffffff1673ffffffffffffffffffffffffffffffffffffffff16815260200190815260200160002054612ef990919063ffffffff16565b600560008473ffffffffffffffffffffffffffffffffffffffff1673ffffffffffffffffffffffffffffffffffffffff168152602001908152602001600020819055505050565b600080831415612e3c5760009050612ea9565b6000828402905082848281612e4d57fe5b0414612ea4576040517f08c379a00000000000000000000000000000000000000000000000000000000081526004018080602001828103825260218152602001806130ac6021913960400191505060405180910390fd5b809150505b92915050565b6000612ef183836040518060400160405280601a81526020017f536166654d6174683a206469766973696f6e206279207a65726f000000000000815250612f81565b905092915050565b600080828401905083811015612f77576040517f08c379a000000000000000000000000000000000000000000000000000000000815260040180806020018281038252601b8152602001807f536166654d6174683a206164646974696f6e206f766572666c6f77000000000081525060200191505060405180910390fd5b8091505092915050565b6000808311829061302d576040517f08c379a00000000000000000000000000000000000000000000000000000000081526004018080602001828103825283818151815260200191508051906020019080838360005b83811015612ff2578082015181840152602081019050612fd7565b50505050905090810190601f16801561301f5780820380516001836020036101000a031916815260200191505b509250505060405180910390fd5b50600083858161303957fe5b049050809150509392505050565b50805460008255906000526020600020908101906130659190613068565b50565b5b80821115613081576000816000905550600101613069565b509056fe4f776e61626c653a206e6577206f776e657220697320746865207a65726f2061646472657373536166654d6174683a206d756c7469706c69636174696f6e206f766572666c6f77a26469706673582212204f6bc8dd60aa4653d861e4948ae2849115e442d0a1b72847fa2b42dc066c9e2264736f6c634300060c0033",
  "immutableReferences": {},
  "source": "pragma solidity 0.6.12;\n\nimport \"openzeppelin-solidity/contracts/access/Ownable.sol\";\nimport \"openzeppelin-solidity/contracts/utils/ReentrancyGuard.sol\";\nimport \"openzeppelin-solidity/contracts/math/SafeMath.sol\";\n\ncontract BnBookingEvents {\n    event RoomBooked(\n        uint256 indexed roomId,\n        address indexed booker,\n        address indexed owner,\n        uint256 price,\n        uint256 day,\n        uint256 month,\n        uint256 year\n    );\n    event PaymentSent(address indexed paymentReceiver, uint256 price);\n    event RoomCreated(address indexed owner, uint256 indexed roomId, uint256 price);\n    event RoomRemoved(address indexed owner, uint256 indexed roomId);\n    event PriceChanged(address indexed owner, uint256 indexed roomId, uint256 newPrice);\n    event BookIntentCreated(\n        uint256 indexed roomId,\n        address indexed booker,\n        address indexed owner,\n        uint256 price,\n        uint256 day,\n        uint256 month,\n        uint256 year\n    );\n    event BookIntentRejected(\n        uint256 indexed roomId,\n        address indexed booker,\n        address indexed owner,\n        uint256 price,\n        uint256 day,\n        uint256 month,\n        uint256 year\n    );\n}\n\ncontract BnBooking is Ownable, ReentrancyGuard, BnBookingEvents {\n    using SafeMath for uint256;\n\n    struct Room {\n        uint256 roomId;\n        address owner;\n        uint256 price;\n    }\n\n    struct BookingIntent {\n        uint256 price;\n        uint256 positionBooker;\n    }\n\n    // bookings: roomId -> hash(date) -> booker\n    mapping (uint256 => mapping (bytes32 => address)) internal bookings;\n\n    // bookingIntents: roomId -> hash(date) -> possibleBooker -> bookingIntent\n    mapping (uint256 => mapping (bytes32 => mapping (address => BookingIntent))) internal bookingIntents;\n\n    mapping (uint256 => mapping (bytes32 => address[])) internal possibleBookers;\n\n    mapping (address => uint256) public accumulatedPayments;\n\n    Room[] public rooms;\n\n    uint256 public nextRoomId = 0;\n\n    uint256 public feeRate;\n\n    address public feeReceiver;\n\n    uint256 public constant FEE_RATE_PRECISION = 10 ** 18;\n\n    uint256 public constant MAX_INTENTS = 5;\n\n    constructor(uint256 _feeRate, address _feeReceiver) public {\n        feeRate = _feeRate;\n        feeReceiver = _feeReceiver;\n    }\n\n    modifier validDate(uint256 day, uint256 month, uint256 year) {\n        require(isValidDate(day, month, year), \"Invalid date\"); //TODO\n        _;\n    }\n\n    modifier roomExists(uint256 roomId) {\n        require(roomId < nextRoomId, \"Room has not been created\");\n        require(rooms[roomId].owner != address(0), \"Room has been removed\");\n        _;\n    }\n\n    function createRoom(uint256 price) public {\n        require(price > 0, \"Price cant be zero\");\n        uint256 roomId = nextRoomId++;\n        rooms.push(Room({\n            roomId: roomId,\n            price: price,\n            owner: msg.sender\n        }));\n        emit RoomCreated(msg.sender, roomId, price);\n    }\n\n    function setFeeRate(uint256 newFeeRate) public onlyOwner {\n        feeRate = newFeeRate;\n    }\n\n    function setFeeReceiver(address newFeeReceiver) public onlyOwner {\n        feeReceiver = newFeeReceiver;\n    }\n\n    function booked(uint256 roomId, uint256 day, uint256 month, uint256 year) public view validDate(day, month, year) returns(bool){\n        return bookings[roomId][getDateId(day, month, year)] != address(0);\n    }\n\n    function intentBook(uint256 roomId, uint256 day, uint256 month, uint256 year) public payable validDate(day, month, year) roomExists(roomId) {\n        require(!booked(roomId, day, month, year), \"Room not available\");\n        require(bookingIntents[roomId][getDateId(day, month, year)][msg.sender].price == 0, \"Intent already created\");\n        Room storage room = rooms[roomId];\n        require(room.owner != msg.sender, \"Cannot book your own room\");\n\n        require(msg.value >= room.price, \"Price not reached\");\n\n        msg.sender.transfer(msg.value.sub(room.price));\n\n        require(possibleBookers[roomId][getDateId(day, month, year)].length < MAX_INTENTS, \"Max intents reached\");\n        possibleBookers[roomId][getDateId(day, month, year)].push(msg.sender);\n        bookingIntents[roomId][getDateId(day, month, year)][msg.sender] = BookingIntent({\n            price: room.price,\n            positionBooker: possibleBookers[roomId][getDateId(day, month, year)].length - 1\n        });\n\n        emit BookIntentCreated(\n            roomId,\n            msg.sender,\n            room.owner,\n            room.price,\n            day,\n            month,\n            year\n        );\n    }\n\n    function reject(uint256 roomId, address booker, uint256 day, uint256 month, uint256 year) public roomExists(roomId) {\n        Room storage room = rooms[roomId];\n        require(room.owner == msg.sender, \"Not owner\");\n        BookingIntent storage intent = bookingIntents[roomId][getDateId(day, month, year)][booker];\n        require(intent.price != 0, \"Intent not found\");\n        emit BookIntentRejected(\n            roomId,\n            booker,\n            msg.sender,\n            intent.price,\n            day,\n            month,\n            year\n        );\n        _reject(roomId, booker, day, month, year);\n        moveLastPossibleBooker(roomId, intent.positionBooker, day, month, year);\n    }\n\n    function accept(uint256 roomId, address booker, uint256 day, uint256 month, uint256 year) public roomExists(roomId) {\n        Room storage room = rooms[roomId];\n        require(room.owner == msg.sender, \"Not owner\");\n        BookingIntent storage intent = bookingIntents[roomId][getDateId(day, month, year)][booker];\n        require(intent.price != 0, \"Intent not found\");\n        address[] storage intenters = possibleBookers[roomId][getDateId(day, month, year)];\n        uint256 numberIntenters = intenters.length;\n        for (uint256 i = 0; i < numberIntenters; i++) {\n            if (intenters[i] == booker)\n                continue;\n            _reject(roomId, intenters[i], day, month, year);\n        }\n        splitPayment(msg.sender, intent.price);\n\n        bookings[roomId][getDateId(day, month, year)] = booker;\n        emit RoomBooked(\n            roomId,\n            booker,\n            msg.sender,\n            intent.price,\n            day,\n            month,\n            year\n        );\n        delete bookingIntents[roomId][getDateId(day, month, year)][booker];\n        delete possibleBookers[roomId][getDateId(day, month, year)];\n    }\n\n\n    function removeRoom(uint256 roomId) public roomExists(roomId) {\n        Room storage toRemove = rooms[roomId];\n        require(toRemove.owner == msg.sender || owner() == msg.sender, \"Not owner\");\n        delete(rooms[roomId]);\n        emit RoomRemoved(msg.sender, roomId);\n    }\n\n    function changePrice(uint256 roomId, uint256 newPrice) public roomExists(roomId) {\n        Room storage toChange = rooms[roomId];\n        require(toChange.owner == msg.sender, \"Not owner\");\n        toChange.price = newPrice;\n        emit PriceChanged(msg.sender, roomId, newPrice);\n    }\n\n    function withdraw() public nonReentrant {\n        uint256 paymentToWithdraw = accumulatedPayments[msg.sender];\n        delete accumulatedPayments[msg.sender];\n        msg.sender.transfer(paymentToWithdraw);\n        emit PaymentSent(msg.sender, paymentToWithdraw);\n    }\n\n    function _reject(uint256 roomId, address booker, uint256 day, uint256 month, uint256 year) internal {\n        BookingIntent storage intent = bookingIntents[roomId][getDateId(day, month, year)][booker];\n        addPayment(booker, intent.price);\n        delete bookingIntents[roomId][getDateId(day, month, year)][booker];\n    }\n\n    function moveLastPossibleBooker(uint256 roomId, uint256 newBookerPostion, uint256 day, uint256 month, uint256 year) internal {\n        address movedBooker = possibleBookers[roomId][getDateId(day, month, year)][newBookerPostion];\n        possibleBookers[roomId][getDateId(day, month, year)].pop();\n        bookingIntents[roomId][getDateId(day, month, year)][movedBooker].positionBooker = newBookerPostion;\n    }\n\n    function splitPayment(address paymentReceiver, uint256 totalPayment) internal {\n        uint256 fees = totalPayment.mul(feeRate).div(FEE_RATE_PRECISION);\n        addPayment(feeReceiver, fees);\n        addPayment(paymentReceiver, totalPayment.sub(fees));\n    }\n\n    function addPayment(address receiver, uint256 payment) internal {\n        accumulatedPayments[receiver] = accumulatedPayments[receiver].add(payment);\n    }\n\n\n    function getDateId(uint256 day, uint256 month, uint256 year) internal pure returns(bytes32){\n        return keccak256(abi.encodePacked(day, month, year));\n    }\n\n    function isValidDate(uint256 day, uint256 month, uint256 year) internal pure returns(bool) {\n\n        bool dayIsPositive = day > 0;\n        bool leapYear = year % 4 == 0 && (year % 100 != 0 || year % 400 == 0);\n        bool doesntExceedFebruary = (day <= 28) || (leapYear && day <= 29);\n        bool isLongMonth = month == 1||\n            month == 3 ||\n            month == 5 ||\n            month == 6 ||\n            month == 8 ||\n            month == 10 ||\n            month == 12;\n        bool isShortMonth = !isLongMonth && month != 2;\n        bool doesntExceedMonth = day <= 30 && isShortMonth || day <= 31 && isLongMonth || doesntExceedFebruary && month == 2;\n        return dayIsPositive && doesntExceedMonth;\n    }\n\n}",
  "sourcePath": "/home/gonza/FIUBA/taller2/2c2020/bookbnb/contracts/BnBooking.sol",
  "compiler": {
    "name": "solc",
    "version": "0.6.12+commit.27d51765.Emscripten.clang"
  },
  "schemaVersion": "3.2.5",
  "updatedAt": "2020-11-26T21:45:13.226Z",
  "networkType": "ethereum",
  "devdoc": {
    "kind": "dev",
    "methods": {
      "owner()": {
        "details": "Returns the address of the current owner."
      },
      "renounceOwnership()": {
        "details": "Leaves the contract without owner. It will not be possible to call `onlyOwner` functions anymore. Can only be called by the current owner. NOTE: Renouncing ownership will leave the contract without an owner, thereby removing any functionality that is only available to the owner."
      },
      "transferOwnership(address)": {
        "details": "Transfers ownership of the contract to a new account (`newOwner`). Can only be called by the current owner."
      }
    },
    "version": 1
  },
  "userdoc": {
    "kind": "user",
    "methods": {},
    "version": 1
  }
}